:10152100514D41583938315F526561645F43686993
:101531007049445F5375737363657373210A004D7A
:10154100473132375F496E69745F537573736365F1
:101551007373210A00514D41583938315F52656129
:10156100645F526177646174615B5820002C59207B
:10157100002C5A20005D0A00514D41583938315F25
:0F158100526561645F53746570646174615B00EF
:10173F000318000000011E000128000127004200CD
:08174F005B000042005900009C
:100C1B001218761200611218CF1219071219D0D2BE
:100C2B00ACD2AF1214AA121701751F008F20E5204A
:100C3B006401451F70097BFF7A15792112195F1228
:100C4B0003D17BFF7A15794012195F751C04E527D8
:100C5B00601685289985281CE59830E1FB5398FD93
:100C6B00E4F527439810D2ACE51CB4011590005B5A
:100C7B00E4F0A37403F0900059E4F0A37406F012AF
:100C8B000673E51CB4020D121895121701751F009F
:100C9B008F2080F6E51CB4030912198A1219D7129A
:100CAB0012B8E51C6404703EFB7A007918120A4FE7
:100CBB007BFF7A15795612195FAF18121337121979
:100CCB005F7BFF7A15796E12195FAF19121337120A
:100CDB00195F7BFF7A15797212195FAF1A121337EE
:100CEB0012195F121959E51C64056003020C59AF08
:100CFB001E1218547BFF7A15797912195FAF1E12E9
:0B0D0B00133712195F121959020C591E
:030023000219239C
:10192300C0E0E59830E0115398FEE599540FF5288F
:0B1933007527015398EFC2ACD0E032E2
:10187600E490FEA0F0E58F30E5FB90FE917402F057
:0F188600538EEFE58E20E6FB90FE917404F02266
:0B19BA008F99E59830E1FB5398FD2267
:061959007BFF7A15797690
:10195F0012015CFF600C1219BA740129F9E43AFA0A
:03196F0080EE22E5
:101337007B007A007923900016EBF0A3EAF0A3E98B
:10134700F0EFC4540F24301201F7900016E0FBA30E
:10135700E0FAA3E0F912015CD3943940057427122F
:1013670001A2EF540F2430FF900016E0FBA3E475B1
:10137700F001120273A9F0FAEF1201F7900016E0DC
:10138700FBA3E0FAA3E0F912015CD394394005749A
:10139700271201A2900016E0FBA3E475F0011202E8
:0D13A70073A9F0FAE41201F7FB7A00792334
:0113B4002216
:100FC60090007BE4F0A37400F0A37423F0EFD394B5
:100FD600634049EF75F064842430FE90007BE0FBAB
:100FE600A3E475F001120289A9F0FAEE1201F7EFF7
:100FF60075F06484AFF0EF75F00A842430FE90003B
:101006007BE0FBA3E475F001120289A9F0FAEE1267
:1010160001F7EF75F00A84AFF0EF802CEFD3940957
:10102600EF402575F00A842430FE90007BE0FBA398
:10103600E475F001120289A9F0FAEE1201F7EF75D4
:10104600F00A84AFF0EF80002430FF90007BE0FBD5
:10105600A3E0FAA3E0F9EF1201F790007BE0FBA30F
:10106600E475F001120273A9F0FAE41201F7FB7AB3
:03107600007923DB
:011079002254
:01006100227C
:1018CF0090FF0B7482F090FFA0740FF0A314F075CB
:0C18DF009DFE759C5F759E1243981022C0
:10000300EF1FAA0670011E4A6015E4FCFDC3ED94C0
:0F00130070EC6480948050E80DBD00010C80EE0D
:0100220022BB
:100E0B00636869702076657273696F6E3D000D0AB9
:100E1B0000426C65416464723D0020003C2D2D2D19
:100E2B0020495251204C4F57202D2D2D3E0A003C6E
:100E3B002D2D2D20626C65206972712077616B6599
:100E4B007570202D2D2D3E0A003C2D2D2D20626C12
:100E5B006520656E74657220736C656570202D2D31
:100E6B002D3E0A003C2D2D2D20494E545F545950D8
:100E7B00455F5044555F4F4B202D2D2D3E0A003CB6
:100E8B002D2D2D20494E545F545950455F534C45E1
:100E9B004550202D2D2D3E0A0000020001000400BC
:100EAB001A00FF004C00000002001500FD000000BE
:100EBB000000000000000000000000000000000027
:100ECB000000000000000000000000000000000017
:100EDB0000000000000000000200FF00FF00FF0008
:0B0EEB0081000200C0000000C00000F9
:0C19AE007E003085047F0180027F002253
:0719D00090FF0074CCF0222F
:1017790090FF01746CF0E4F52BF52CC281EF30E792
:1017890004D2828002C282D281EF25E0FFEE33FECD
:10179900052CE52C7002052B6408452B70DDC281F0
:0217A900D282EA
:0117AB00221B
:1017AC00E4FFFEFDFC90FF0174C6F0C281D281EF14
:1017BC0025E0FFEE33FE308204EF4401FF0DBD0047
:1017CC00010CED64084C70E390FF01746CF0C28165
:0117DC0022EA
:101832007D017BFF7E007F041201367D517C007F9B
:03184200507E00D5
:0F184500C280121779AE04AF05121779D2802234
:041972007F1F7E0055
:10197600E4F529F52AC2801217791217AC8E298F41
:031986002AD280E2
:01198900223B
:1011A000A3F07A0079267B01900033E4F0A3740267
:0511B000F07F137E003A
:1011B50090002EEEF0A3EFF0A3EBF0A3EAF0A3E985
:0111C500F039
:1011C600E4F529F52AC2807F05FE12000390002E61
:1011D600E0FEA3E04420FF121779E4F529F52AD3AF
:1011E600900034E0952AE5296480F8900033E064A5
:1011F60080984028900030E0FBA3E0FAA3E0F912C3
:10120600029FFFAEF0121779900031E475F00212DA
:101216000273052AE52A70C7052980C37F057E006B
:05122600120003D2805C
:01122B0022A0
:1013B50090003AEEF0A3EFF0A3EBF0A3EAF0A3E977
:0113C500F037
:1013C600E4F529F52AC2807F05FE12000390003A53
:1013D600E0FEA3E0FF121779E4F529F52AD3900081
:1013E60040E0952AE5296480F890003FE064809803
:1013F600402F1217ACAC06AD07E52A25E0FFE5291C
:1014060033FE90003CE0FBA3E0FAA3E0F98F828E66
:1014160083EC8DF01202E9052AE52A70C0052980C1
:0A142600BC7F057E00120003D28097
:011430002299
:1003D100D28512183D7D53121841E4FD7F35FE127E
:1003E10018457D187F3D7E001218457D5112184138
:1003F1007D5312183FE4900002F0A3F0A3F0A3F0A4
:10040100A3F0A304F0FB7A007902900033E4F0A397
:100411007403F0E4FFFE1211B57D8E7C007F367E01
:10042100001218457D887F377E001218457F387E7F
:10043100001218457D8E7F397E001218457D5112BC
:1004410018417F1E7E00121976900000EFF01219FC
:1004510072900000EFF0648070967F1EFE12197694
:10046100900000EFF07BFF7A0E790B12195F90007C
:1004710000E0FF12133712195F7BFF7A0E79191210
:10048100195F7D787C007F207E001218457D067FF4
:10049100267E001218457D7A7F207E001218457D48
:1004A100561218411218097B017A00790A90003F0F
:1004B100E4F0A37406F07F087E001213B57BFF7A87
:1004C1000E791C12195F9000017405F0900001E093
:1004D100FFC3648094804030EF3395E0FEEF25E068
:1004E100FFEE33FE740A2FF58274003EF583A3E01C
:1004F100FF12133712195F7BFF7A0E792512195FEC
:10050100900001E014F080C47BFF7A0E7919121972
:100511005F7D5312183F900002E4F0A374FFF0A333
:10052100E4F0A37480F07B017A007902900033E457
:10053100F0A37402F07F147E001211B5900002E462
:10054100F0A37402F0A3E4F0A37443F07B017A00FA
:100551007902900033E4F0A37402F07F0F7E001261
:1005610011B57F087E00121976900004EEF0A3EF1A
:10057100F04E7008900004F0A37415F0900002E4AE
:10058100F0A374C0F0900006E4F0A3741DF07B01A9
:100591007A007902900033E4F0A37403F07F047EC3
:1005A100001211B5E4900002F0A3F0A3F0A3F07BD8
:1005B100017A007902900033F0A37402F07F0C7E7F
:1005C100001211B5900002E4F0A37481F0A3E4F0ED
:1005D100A37422F07A0079021211A67D027C007FB9
:1005E100217E001218457D307F3C7E001218457F28
:1005F1003E7E00121845900002E4F0A37410F0A3AF
:10060100E4F0A37402F07B017A007902900033E4F4
:10061100F0A37402F07F0A7E001211B5900002E48B
:10062100F0A37402F0A3E4F0A37412F07B017A004A
:100631007902900033E4F0A37402F07F0D7E001282
:1006410011B5900002E4F0A304F0A3E4F0A3740751
:10065100F07B017A007902900033E4F0A37402F098
:100661007F0E7E001211B57D567C007F507E000208
:0206710018452A
:1018090078267C007D017BFF7A0E79E27E007F08D5
:101819001201367B017A007926900033E4F0A37433
:0918290004F07F0F7E000211B5EE
:0B19C5007D017C007F2F7E0002184592
:1018EB0012183D7D7A7F207E001218457D53121809
:0C18FB0041E4FD7F35FE1218450211107B
:1016440078267C007A0E79EA1218327D787F207E23
:10165400001218457D531218417D017F357E00121A
:1016640018457B017A0079261211A87DA07C007FA1
:0F1674003E7E001218457D567F507E00021845BD
:04168300AD07AC06FD
:10168700900026E4F0A3EFF0ECFFA3E4F0A3EFF063
:10169700FEED7810CEA2E713CE13D8F8FF90002AFC
:1016A700E4F0A3EFF07B017A007926900033E4F0B1
:0B16B700A37403F07F077E000211B552
:0416C200AD07AC06BE
:1016C600900026E4F0A3EFF0ECFFA3E4F0A3EFF024
:1016D600FEED7810CEA2E713CE13D8F8FF90002ABD
:1016E600E4F0A3EFF07B017A007926900033E4F072
:0B16F600A37403F07F117E000211B509
:1017DD00AB07AA067D5312183FAE02EB7802C33356
:1017ED00CE33CED8F9AC064418FD7F3D7E001218DD
:0C17FD00457D567C007F507E00021845A0
:0B0D1600900026EBF0A3EAF0A3E9F048
:100D21007B017A00792E90003FE4F0A37402F07FFA
:100D3100047E001213B5900031E02402FF900030D0
:100D4100E03400F9900029E0FBA3E0FAA3E0C98FA9
:100D5100F01202CA90002EE0F9A3E0FF900026E015
:100D6100FBA3E0FAA3E0C98FF01202CA900030E0C1
:100D7100FEA3E0FF900026E0FBA3E0FAA3E0F990D8
:100D81000002EE8FF01202E97E0090002FE0540F76
:100D9100FFA3E0FDA3E090002CCDF0A3EDF0EE70F9
:100DA10030EF24FE600424027027E92404F9E43AB8
:100DB100FA90003FE4F0A37406F07F0B7E0012135B
:100DC100B590002DE024FAF090002CE034FFF08083
:100DD10007E490002CF0A3F090002CE0FEA3E0FFCC
:100DE100D39400EE64809480401F900026E0FBA322
:100DF100E0FAA3E02410F9E43AFA90003FEEF0A300
:090E0100EFF07F617E001213B5D1
:010E0A0022C5
:101110007D037C007F3F7E001218451219729000FB
:1011200026EEF0A3EFF0540370F17D03FC7F3FFE49
:10113000121845121972900026EEF0A3EFF0540336
:1011400070F17D01FC7F35FE1218457DA07F327E57
:10115000001218457D047F2A7E00121845E4FD7FA9
:101160002AFE1218457D887F327E001218459000B5
:1011700026E4F0A304F0A3E4F074211211A090007F
:1011800026E4F0A304F0A3E4F074201211A0E4FD1F
:10119000FC7F35FE1218457D567F507E00021845B3
:10107A0090007712034B0001400012183D7D531275
:10108A0018417D1E7F3D7E0012184590007774FF3F
:10109A00120318EC4D4E4F70F27D5612183FE4FDC4
:1010AA007F20FE1218457D531218417D8C7F367EB3
:1010BA00001218457D51121841E4FD7F21FE1218D5
:1010CA00457D507F257E00121845E4FD7F24FE12DF
:1010DA0018457D0E7F207E001218457D967F267E5C
:1010EA00001218457DFF7FE37E001218457D5312DA
:1010FA0018417D8E7F367E001218457D187F3D7E11
:06110A000012184580FEF2
:1014310012183D7D531218417D017F357E0012182F
:1014410045900071E4F0A37493F0E4A3F0A3F07B62
:10145100017A007971900033F0A37402F07F147E59
:10146100001211B57D307C007F3E7E00121845E4EC
:10147100FD7F31FE1218457D487F3B7E00121845E5
:10148100E4900071F0A3F0A3F0A3F0A3F0A374150E
:10149100F07B017A007971900033E4F0A37403F0DA
:0914A1007F127E001211B580FEDD
:10067300E4900000F0A3F0A3F0A37425F0900059D8
:10068300E0FEA3E0FF90005CE02FFF90005BE03E04
:10069300FE900020F0A3EFF0E4A3F0A3F0A3F0A3F7
:1006A300F0EF4E700302087B7F017E001217DD120C
:1006B30018EB900002E0FCA3E0FD7F217E001218FE
:1006C300457BFF7A0E79A4900033E4F0A3741FF006
:1006D3007FA07E001211B5900004E4F0A37402F031
:1006E300A3E4F0A37425F07B017A0079049000332E
:1006F300E4F0A37402F07F037E001211B5900004AE
:10070300E4F0A374FFF0A3E4F0A37480F07B017A18
:10071300007904900033E4F0A37402F07F0E7E00AE
:100723001211B51219C57F307E751216C290007E64
:10073300E4F0A3743CF01219AEEF4E6003020868B4
:100743007BFF7A0E792712195F7F0E7E00121976CE
:10075300900000EEF0FCA3EFF0FD7F2E7E00121858
:1007630045900001E030E05C7BFF7A0E793A121984
:100773005FD390005CE0940090005BE06480948021
:100783004010A3E024FFF090005BE034FFF07D0C09
:10079300801FD390005AE09400900059E064809445
:1007A300804093A3E024FFF0900059E034FFF07DF4
:1007B300097C007F227E001218457F007E7112168D
:1007C300830207397BFF7A0E795412195F121809D5
:1007D300900001E030E6207BFF7A0E796F12195FFB
:1007E3009000297401F0A37400F0A37422F07B013C
:1007F3007A007908120D16900001E020E103020748
:10080300397BFF7A0E798A12195F90007EE4F0A398
:10081300743CF0900002E475F001120273FED3E51C
:10082300F09427EE648094804009900002E4F0A3E2
:100833007425F0900002E0FCA3E0FD7F217E00120E
:100843001845900021E024FFF0900020E034FFF0F1
:10085300E07002A3E07008FFFE1217DD02164412D7
:1008630019C502073990007EE07002A3E06003021D
:080873000739121809020739C8
:01087B00225A
:100EF60090006112034B0000003078657C007A0E8A
:100F060079EE1218327D531218417D1E7F3D7E0008
:100F160012184590006174FF120318EC4D4E4F7085
:100F2600F27D5612183FE4FD7F20FE1218457D53D0
:100F36001218417D8C7F367E001218457D0F7F2763
:100F46007E001218457B017A007965900033E4F043
:100F5600A37402F07F047E001211B512183DE4FD61
:100F66007F21FE1218457D507F257E00121845E42C
:100F7600FD7F24FE1218457D0E7F207E0012184547
:100F86007D967F267E001218457DFF7FE37E001248
:100F960018457D531218417D8E7F367E0012184506
:100FA6007D511218417D067F267E001218457D96DA
:100FB6007F267E001218457D537F507E000218451D
:0E087C00900069EEF0A3EFF0A3ECF0A3EDF016
:10088A00786D7C007D017BFF7A0E79F27E007F0411
:10089A00120136900069E0FEA3E0FFEE6003020A4F
:1008AA002DEF24F8B419004003020A2D9008C475EC
:1008BA00F003A4C58325F0C5837302090F02091A40
:1008CA0002092502093002093B02094602095102BE
:1008DA00095C02096702097202097D020988020994
:1008EA009302099D0209A70209B10209BB0209C5BF
:1008FA000209CF0209D90209E30209ED0209F70246
:10090A000A01020A0B90006FE4F0A37408020A13AA
:10091A0090006FE4F0A37409020A1390006FE4F0E8
:10092A00A3740A020A1390006FE4F0A3740B020A7C
:10093A001390006FE4F0A3740C020A1390006FE4A2
:10094A00F0A3740D020A1390006FE4F0A3740E0270
:10095A000A1390006FE4F0A3740F020A1390006F59
:10096A00E4F0A37410020A1390006FE4F0A3741168
:10097A00020A1390006FE4F0A37412020A139000A3
:10098A006FE4F0A37413020A1390006FE4F0A374E7
:10099A0014807690006FE4F0A37415806C90006F59
:1009AA00E4F0A37416806290006FE4F0A3741780D9
:1009BA005890006FE4F0A37418804E90006FE4F032
:1009CA00A37419804490006FE4F0A3741A803A90DB
:1009DA00006FE4F0A3741B803090006FE4F0A374FE
:1009EA001C802690006FE4F0A3741D801C90006F99
:1009FA00E4F0A3741E801290006FE4F0A3741F80C9
:100A0A000890006FE4F0A37420F07B017A00796DFE
:100A1A00900033E4F0A37402F07F047E001211B553
:100A2A0002089D90006FE4F0A37408F07B017A003D
:100A3A00796D900033E4F0A37402F07F047E001213
:050A4A0011B502089D3A
:030063000219DEA1
:0619DE00B28153BC7F3210
:10199D00438F04E58F30E6FB75BC13E490FF84F0B4
:0119AD002217
:1018950090FF0A7423F090FF0B7432F090FFA214AE
:0D18A500F090FFA314F075A64475AF242247
:1018B20053A6F7E5A6B460FBE5A6B468FB53A6F70A
:0D18C200AFAEE5A6B480FB53A6F7ADAE2295
:1015900053A6F743A620E5A620E305E5A7B408F681
:1015A00053A6DF53A6F775AE24E5A7B418FB53A6E0
:1015B000F78FAEE5A7B428FB53A6F743A620E5A610
:1015C00020E305E5A7B408F653A6DF53A6F775AEEA
:1015D00025E5A7B440FB53A6F7E5A7B458FB85AEB5
:0915E0002D53A6F743A610AF2D10
:0115E90022DF
:1019070090FF1374A3F090FF22743AF090FFA27433
:0C19170017F090FFA37424F075A6402286
:1000260053A6F743A620E5A620E305E5A7B408F600
:1000360053A6DF53A6F775AE24E5A7B418FB53A65F
:10004600F78FAEE5A7B428FB53A6F7AF058FAEE54D
:0B005600A7B428FB53A6F743A6102216
:1015EA0053A6F743A620E5A620E305E5A7B408F627
:1015FA0053A6DF53A6F775AE24E5A7B418FB53A686
:10160A00F78FAEE5A7B428FB53A6F743A620E5A6B5
:10161A0020E305E5A7B408F653A6DF53A6F775AE8F
:10162A0025E5A7B440FB53A6F7E5A7B458FB85AE5A
:09163A002953A6F743A610AF29BD
:011643002284
:1017570054004300000000000000000000000000EB
:101767000000000000000042004100004200570056
:011777000071
:10198A0090FF107433F043B48043B50990FE9B7402
:03199A0013F02225
:0719D70090FF0B7433F022B6
:1012B800E4900000F0A3F0D39297120000AC06ADC2
:1012C80007900001E025E0FF900000E033FE744342
:1012D8002FF58274003EF583ECF0A3EDF074432FF4
:1012E800F58274003EF583E0FEA3E0FF900042E043
:1012F8002FF0900041E03EF0900001E004F070060D
:10130800900000E004F0C3900001E0940A9000000F
:10131800E06480948040A0900041E0FEA3E0FF7C60
:0E132800007D0A12023D900057EEF0A3EFF098
:011336002294
:0619E400000000000000FD
:1014AA007D807F111200267DB67F361200267F05C9
:1014BA007E00120003E4FD7F361200267D807F1134
:1014CA001200267D047F0F1200267D2A7F1012004B
:1014DA00267D8F7F121200267D107F131200267D33
:1014EA00147F141200267D107F151200267D0C7FB2
:1014FA00161200267D017F321200267D607F271298
:10150A0000267D607F281200267D607F2912002632
:07151A007F017E00020003C7
:101701007D807F111200267F027E00120003E4FF1C
:101711001215EA900001EFF01219BA900001E0FFF2
:10172100C394B0400EEFD394B650089000007401FA
:0D173100F08005E4900000F0900000E0FF63
:01173E002288
:0B0A4F00900000EBF0A3EAF0A3E9F038
:100A5A0078037C007D017BFF7A1979E47E007F06AA
:100A6A001201367F011215EA900003EFF07F02129D
:100A7A0015EA900004EFF07F031215EA900005EFE3
:100A8A00F07F041215EA900006EFF07F051215EACE
:100A9A00900007EFF07F061215EA900008EFF09039
:100AAA000004E075F004A4FF900003E0C41313549B
:100ABA0003FDEF4DFF900000E0FBA3E0FAA3E0F98D
:100ACA00EF1201F7900006E075F004A4FF9000050C
:100ADA00E0C413135403FDEF4DFF900000E0FBA3A5
:100AEA00E0FAA3E0F9900001EF120209900008E091
:100AFA0075F004A4FF900007E0C413135403FDEF3C
:100B0A004D900002120209E4FF900000E0FBA3E00E
:100B1A00FAA3E0F98F82758300120175B4000CE420
:100B2A00B402088F82758300E48050E430E14F906C
:100B3A000000E0FBA3E0FAA3E0F98F82758300745A
:100B4A00FF1201C48F82758300120175F48F8275BA
:100B5A008300120209E92FF9E43AFA12015C120140
:100B6A00F7900000E0FBA3E0FAA3E0F98F82758317
:100B7A0000120175F4048F82758300120209900035
:100B8A0000E0FBA3E0FAA3E0F98F8275830074A06A
:100B9A001201C40FEF64036003020B13900000E01C
:100BAA00FBA3E0FAA3E0F912015CFF7E007C267D3C
:100BBA004F12022B7C047D0012023DEF1201F790C6
:100BCA000000E0FBA3E0FAA3E0F99000011201752E
:100BDA00FF7E007C267D4F12022B7C047D001202D0
:100BEA003D900001EF120209900002120175FF7E8A
:100BFA00007C267D4F12022B7C047D0012023D9060
:100C0A000000E0FBA3E0FAA3E0F9900002EF020281
:010C1A0009D0
:10193E007F131215EA900080EFF07D807F13120066
:0B194E0026900080E0FD7F13020026C1
:05185400900000EFF020
:101859007F071215EA900001EFF07F081215EA9050
:0C1869000002EFF0900001E0900000F0A1
:011875002250
:0300000002122CBD
:0C122C00787FE4F6D8FD75812D02127366
:10006600E709F608DFFA8046E709F208DFFA803E7C
:1000760088828C83E709F0A3DFFA8032E309F60869
:10008600DFFA8078E309F208DFFA807088828C83D1
:10009600E309F0A3DFFA806489828A83E0A3F60885
:1000A600DFFA805889828A83E0A3F208DFFA804C5F
:1000B60080D280FA80C680D4806980F28033801036
:1000C60080A680EA809A80A880DA80E280CA80339F
:1000D60089828A83ECFAE493A3C8C582C8CCC58317
:1000E600CCF0A3C8C582C8CCC583CCDFE9DEE780E7
:1000F6000D89828A83E493A3F608DFF9ECFAA9F066
:10010600EDFB2289828A83ECFAE0A3C8C582C8CCBB
:10011600C583CCF0A3C8C582C8CCC583CCDFEADED4
:10012600E880DB89828A83E493A3F208DFF980CC36
:1001360088F0EF60010E4E60C388F0ED2402B4042F
:100146000050B9F582EB2402B4040050AF232345D6
:0601560082239000B67345
:10015C00BB010689828A83E0225002E722BBFE02A1
:09016C00E32289828A83E49322D4
:10017500BB010CE58229F582E5833AF583E022503F
:1001850006E92582F8E622BBFE06E92582F8E22289
:0D019500E58229F582E5833AF583E49322A3
:1001A200BB010989828A83F8E028F022500327F7ED
:1001B20022BBFE05F8E328F3228A838982F8E493BE
:0201C2002822F1
:1001C400BB010FF8E58229F582E5833AF583E0283F
:1001D400F0225009C58229F8E58226F622BBFE09E1
:1001E400C58229F8E22582F222F8EA2583F583E91B
:0301F4009328222B
:1001F700BB010689828A83F0225002F722BBFE01E7
:02020700F322E0
:10020900F8BB010DE58229F582E5833AF583E8F02B
:10021900225006E92582C8F622BBFE05E92582C8D7
:02022900F222BF
:10022B00EF8DF0A4A8F0CF8CF0A428CE8DF0A42EE7
:02023B00FE22A1
:10023D00C2D5EC30E709B2D5E4C39DFDE49CFCEEDC
:10024D0030E715B2D5E4C39FFFE49EFE12037CC3D5
:10025D00E49DFDE49CFC800312037C30D507C3E4D0
:06026D009FFFE49EFE224B
:10027300C5F0F8A3E028F0C5F0F8E5821582700216
:060283001583E038F022B3
:10028900A3F8E0C5F025F0F0E58215827002158328
:06029900E0C838F0E82285
:10029F00BB010A89828A83E0F5F0A3E0225006872A
:1002AF00F009E71922BBFE07E3F5F009E3192289EC
:0B02BF00828A83E493F5F0740193221F
:1002CA00BB010A89828A83F0E5F0A3F0225006F77F
:0F02DA0009A7F01922BBFE06F3E5F009F319227C
:1002E900F8BB0111E58229F582E5833AF583E8F047
:1002F900E5F0A3F0225009E92582C8F608A6F02204
:0D030900BBFE09E92582C8F2E5F008F222EA
:100316007401FF3395E0FEFDFCA3A3A3E0CF2FF00D
:10032600E582158270021583E0CE3EF0E5821582E5
:1003360070021583E0CD3DF0E582158270021583CB
:05034600E0CC3CF022B8
:10034B00A8828583F0D083D08212036212036212DB
:10035B000362120362E473E493A3C583C5F0C58300
:10036B00C8C582C8F0A3C583C5F0C583C8C582C8FC
:01037B00225F
:10123800020C1BE493A3F8E493A34003F68001F2A5
:1012480008DFF48029E493A3F85407240CC8C333B7
:10125800C4540F4420C8834004F456800146F6DF86
:10126800E4800B010204081020408090173FE47EC0
:10127800019360BCA3FF543F30E509541FFEE4937B
:10128800A360010ECF54C025E060A840B8E493A342
:10129800FAE493A3F8E493A3C8C582C8CAC583CA6D
:1012A800F0A3C8C582C8CAC583CADFE9DEE780BE25
:011778000070
:10037C00BC000BBE0029EF8DF084FFADF022E4CC65
:10038C00F875F008EF2FFFEE33FEEC33FCEE9DEC2E
:10039C00984005FCEE9DFE0FD5F0E9E4CEFD22ED74
:1003AC00F8F5F0EE8420D21CFEADF075F008EF2FBE
:1003BC00FFED33FD4007985006D5F0F222C398FDAF
:0503CC000FD5F0EA224C
:00000001FF
