:100F1B00010F00010E00010D000108004200C3008B
:0B0F2B00004200C100004200C50000B1
:060BA30090009C12029577
:100BA9009000A01202A1000000009000A01202A172
:100BB9000000000090009CE0FCA3E0FDA3E0FEA380
:100BC900E0FFA3E0F8A3E0F9A3E0FAA3E0FBC31276
:100BD900023C50270000000000009000A0E0FCA3A8
:100BE900E0FDA3E0FEA3E02401FFE43EFEE43DFDB9
:0B0BF900E43CFC9000A012029580B9C3
:010C040022CD
:060AD7009000941202954C
:100ADD009000981202A1000000009000981202A14F
:100AED0000000000900094E0FCA3E0FDA3E0FEA355
:100AFD00E0FFA3E0F8A3E0F9A3E0FAA3E0FBC31243
:100B0D00023C502C7F6C7E047D007C00120BA39068
:100B1D000098E0FCA3E0FDA3E0FEA3E02401FFE4C8
:100B2D003EFEE43DFDE43CFC90009812029580B43D
:010B3D002295
:100C6700E4900092F0A3F01211C91213D3121108E5
:100C77001212B21200661212201212EC12129ED237
:100C8700AF1202D2D2C79000C074F4F0E49000BF54
:100C9700F09000C3E07002A3E070F6C2BA9000C003
:100CA700E0FF9000BFE0FD12139C1204CE7F647E2C
:100CB700007D007C00120AD7D2BA438703C2B080F6
:010CC700D05C
:10000E00D3EF9400EE9400400B7D64DDFEEF1F7085
:04001E00EF1E80EC65
:0100220022BB
:1011C900E490FEA0F0E58F30E5FB90FE917402F00B
:0F11D900538EEFE58E20E6FB90FE917404F0221A
:03007B00020ECEA4
:100ECE00C0E0C0F0C083C082C0D075D000C000C0EA
:100EDE0001C002C003C004C005C006C007E59630BD
:100EEE00E4105396EF7D017C00E4FFFE1211E843FF
:100EFE00A802D007D006D005D004D003D002D0016E
:0D0F0E00D000D0D0D082D083D0F0D0E0321F
:1012EC0090FEB1E04401F090FEB8E04410F043B839
:0212FC002022AE
:03000B00020B3EA7
:100B3E00C0E0C083C082C0D075D000C006C00753CD
:100B4E0088DF9000C2E004F070069000C1E004F06F
:100B5E009000C1E0FEA3E0FF64024E700630B403C5
:100B6E00750D01EF64064E700F20B40CE50D600894
:100B7E00750D00B2B053A8FDEF64144E700A30B478
:100B8E0007F50DB2C753A8FDD007D006D0D0D0823E
:050B9E00D083D0E0321D
:10129E00E490FE80F0F589758C7D758A8843A802EE
:0412AE005388E0225F
:1011E800EF4E600CED4C6004438840225388B022D7
:0C11F800ED4C6004438810225388E02274
:10110800E490FF2AF090FF18E054F0F0E0440CF06F
:1011180090FF23E0540FF0E044C0F0C2C7C2B09083
:0B112800FF1AE054F0F0E04405F02254
:0300230002123C8A
:10123C00C0E0E59830E0115398FEE599540FF50F96
:0B124C00750E015398EFC2ACD0E032E9
:1012040090FF0B7482F090FFA0740FF0A314F0759C
:0C1214009DFE759C5F759E124398102291
:0300630002002672
:10002600C0E0C083C082C0D09000C4E004F0700677
:100036009000C3E004F053BC7FC39000C4E0940377
:100046009000C3E09400400BD2B0E4F0A3F0C2BA33
:0C0056005387FCD0D0D082D083D0E032A1
:1012B200438F04E58F30E6FB75BC1F90FF847403F7
:0412C200F0C2BA229A
:0B1391008F99E59830E1FB5398FD2296
:1012C600120174FF600C121391740129F9E43AFAC1
:0312D60080EE2285
:100A59007B007A0079099000D2EBF0A3EAF0A3E9D0
:100A6900F0EFC4540F24301201DC9000D2E0FBA354
:100A7900E0FAA3E0F9120174D394394005742712FE
:100A890001BAEF540F2430FF9000D2E0FBA3E475C4
:100A9900F001120210A9F0FAEF1201DC9000D2E085
:100AA900FBA3E0FAA3E0F9120174D3943940057469
:100AB900271201BA9000D2E0FBA3E475F0011202FB
:0D0AC90010A9F0FAE41201DCFB7A007909B3
:010AD60022FD
:10080D009000D5E4F0A37400F0A37409F0EFD39435
:10081D00634049EF75F064842430FE9000D5E0FB11
:10082D00A3E475F001120226A9F0FAEE1201DCEF35
:10083D0075F06484AFF0EF75F00A842430FE9000FB
:10084D00D5E0FBA3E475F001120226A9F0FAEE1231
:10085D0001DCEF75F00A84AFF0EF802CEFD3940933
:10086D00EF402575F00A842430FE9000D5E0FBA3FF
:10087D00E475F001120226A9F0FAEE1201DCEF7513
:10088D00F00A84AFF0EF80002430FF9000D5E0FB3C
:10089D00A3E0FAA3E0F9EF1201DC9000D5E0FBA391
:1008AD00E475F001120210A9F0FAE41201DCFB7AF2
:0308BD00007909B6
:0108C0002215
:10127000EF1FAC0670011E4C600C00000000000067
:071280000000000080EA22DB
:1000660090FF0074CCF090FF027433F090FF21747F
:0500760080F0D28022A1
:1010170090FF01746CF0E4FDFCC2810000EF30E743
:1010270004D2828002C28200000000D281EF25E054
:10103700FFEE33FE0DBD00010CED64084C70DAC203
:0310470081D282D1
:01104A002283
:10115D00E4FFFE90FF0174C6F0C2810000D281EF62
:10116D0025E0FF3082034401FF0EEEB408EB90FF43
:06117D0001746CF0C28158
:011183002249
:1012D900AB05C2807E00121017AF037E00121017F3
:0312E900D280228E
:10131000E4F511C280FE12101712115D8F11D280F8
:0113200022AA
:10104B00E4F511C280EF4420FF7E00121017E4F587
:10105B00119000A6E0FFE511C39F5014120174FF1D
:10106B007E00121017740129F9E43AFA051180E198
:02107B00D28021
:01107D002250
:0B0FA0009000A9EBF0A3EAF0A3E9F039
:100FAB00E4FDC280FE121017E4FD9000ACE0FFEDF3
:100FBB00C39F501A12115D9000A9E0FBA3E0FAA3A6
:100FCB00E0F98D82758300EF1201EE0D80DCD2808B
:010FDB0022F3
:0913BB0020C2037F01227F002201
:0800030002FFFFFF8102C000B3
:100F360041002A00410029005E002B0201041AFF2D
:100F46004C000215FDA50693A4E24FB1AFCFC6EB48
:090F560007647825273252A8CA6D
:0B139C0090002AEFF0900029EDF022F5
:10118400789E7C007D017BFF7A0079037E007F04DA
:1011940012014E7B017A00799E9000A67404F07FC0
:0411A4000F02104BDB
:0713CC007D017F2F0212D901
:10107E007D517F501212D97D7A7F201212D97D5365
:10108E007F501212D9E4FD7F351212D97D1E7F3D9D
:10109E001212D912094D7D567F501212D9021184A7
:100DD500789B7C007D017BFF7A0079077E007F028E
:100DE50012014E7D517F501212D97D787F2012124B
:100DF500D97D537F501212D97D187F3D1212D97DAE
:100E0500017F351212D97B017A00799B9000A67477
:100E150002F07F1312104B7DA07F3E1212D97D5632
:050E25007F500212D90C
:060E2A0090009B120295EE
:100E300090009BE0FCA3E0FDA3E0FEA3E0FFA3EF96
:100E4000F090009BA3A3A3E0780812024D9000A0AD
:100E5000EFF090009BE0FCA3E0FDA3E0FEA3E0FF29
:100E6000781012024DE49000A1EFF07B017A007936
:0C0E70009F9000A67403F07F0702104B57
:060E7C0090009B1202959C
:100E820090009BE0FCA3E0FDA3E0FEA3E0FFA3EF44
:100E9200F090009BA3A3A3E0780812024D9000A05B
:100EA200EFF090009BE0FCA3E0FDA3E0FEA3E0FFD7
:100EB200781012024DE49000A1EFF07B017A0079E4
:0C0EC2009F9000A67403F07F1102104BFB
:0B07500090009BEBF0A3EAF0A3E9F09F
:10075B007B017A0079A29000AC7402F07F04120F37
:10076B00A09000A3E02402FF90009EE0FBA3E0FA20
:10077B00A3E0F9EF1201DC9000A2E0FF90009BE0F8
:10078B00FBA3E0FAA3E0F9EF1201DC9000A3E0FF7A
:10079B0090009BE0FBA3E0FAA3E0F9900001EF12BD
:1007AB0001EE9000A2E0540FFE9000A1EFF0AF0617
:1007BB00EF24FE600824FC60042406701BE924026D
:1007CB00F9E43AFA9000AC7406F07F0B120FA0908C
:1007DB0000A1E024FAF08005E49000A1F09000A1C4
:1007EB00E0FFD39400401A90009BE0FBA3E0FAA338
:1007FB00E02408F9E43AFA9000ACEFF07F61120FB5
:01080B00A04C
:01080C0022C9
:10094D007D037F3F1212D97F1F12131090009BEF72
:10095D00F0540370F27D037F3F1212D97F1F1213E3
:10096D001090009BEFF0540370F27D017F35121251
:10097D00D97DA07F321212D97D047F2A1212D9E4BB
:10098D00FD7F2A1212D97D887F321212D990009BD9
:10099D007401F0A37421F07B017A00799B9000A67D
:1009AD007402F07F1312104B90009B7401F0A3742E
:1009BD0020F07B017A00799B9000A67402F07F13E2
:0A09CD0012104BE4FD7F350212D931
:1002D2007D517F501212D97D537F501212D9E4FD05
:1002E2007F351212D97D8C7F361212D97D187F3D4F
:1002F2001212D97D517F501212D97D537F501212A2
:10030200D9E4900094F0A3F0A304F0FB7A0079946E
:100312009000A67403F0E4FF12104B7D8E7F36121C
:1003220012D97D887F371212D97D887F381212D96F
:100332007D8E7F391212D97D517F501212D97F1EC4
:100342001213107F1F121310EFB480AE7D787F203E
:100352001212D97D067F261212D97D7A7F201212BF
:10036200D97D567F501212D91211847B017A0079FD
:10037200989000AC7406F07F08120FA07D537F5056
:100382001212D9900094747FF0A304F07B017A00DA
:1003920079949000A67402F07F1412104B9000948E
:1003A2007402F0A37443F07B017A0079949000A662
:1003B2007402F07F0F12104B7F08121310900095F9
:1003C200EFF070037412F090009474C0F0900096F5
:1003D200742DF07B017A0079949000A67403F07F6B
:1003E2000412104B9000947480F0E4A3F07B017A25
:1003F2000079949000A67402F07F0C12104B9000CA
:10040200947481F0A37422F07B017A0079949000B5
:10041200A67402F07F1312104B7D027F211212D9B3
:100422007D307F3C1212D97D307F3E1212D990006E
:10043200947438F0A3740FF0E4A3F07B017A00798E
:10044200949000A67403F07F0212104B90009474F3
:1004520080F0A37470F0A37421F0A37440F07B01C8
:100462007A0079949000A67404F07F0B12104B7DF1
:10047200717F291212D99000947410F0A37402F0C3
:100482007B017A0079949000A6F07F0A12104B90BB
:1004920000947402F0A37412F07B017A00799490B4
:1004A20000A67402F07F0D12104B9000947401F0BC
:1004B200A37407F07B017A0079949000A67402F08D
:0C04C2007F0E12104B7D567F500212D9A5
:100664009000C71202A10001400078CB7C007D01FC
:100674007BFF7A0079097E007F0212014E7D517F53
:10068400501212D97D537F501212D97D1E7F3D1214
:1006940012D99000C774FF120262EC4D4E4F70F2F3
:1006A4007D567F501212D9E4FD7F201212D97D535A
:1006B4007F501212D97D8C7F361212D97D0F7F277D
:1006C4001212D97B017A0079CB9000A67402F07FD4
:1006D4000412104B9000CB7424F0A3742EF07B0111
:1006E4007A0079CB9000A67402F07F1112104B7D32
:1006F400517F501212D9E4FD7F211212D97D507F0F
:10070400251212D9E4FD7F241212D97D0E7F201206
:1007140012D97D967F261212D97DFF7FE31212D95A
:100724007D537F501212D97D8E7F361212D97D519E
:100734007F501212D97D067F261212D97D967F260C
:0C0744001212D97D537F501212D980FE92
:100C05007D517F501212D97D537F501212D97D012B
:100C15007F351212D99000D87493F0E4A3F07B01CC
:100C25007A0079D89000A67402F07F1412104B7DDB
:100C3500307F3E1212D9E4FD7F311212D97D487FF3
:100C45003B1212D9E49000D8F0A3F0A37415F07B01
:100C5500017A0079D89000A67403F07F1212104B28
:020C650080FE0F
:1004CE00E4900094F0A37425F0900029E0FFA3E0DF
:1004DE002FFF900098F0E4A3F0A3F0EF7003020654
:1004EE006312107E900095E0FD7F211212D97B01E0
:1004FE007A00792B9000A6741EF07FA012104B90FC
:10050E0000967402F0A37424F07B017A0079969021
:10051E0000A67402F07F0312104B90009674FFF049
:10052E00A37480F07B017A0079969000A67402F095
:10053E007F0E12104B1213CC7F307E757D007C0027
:10054E00120E7C900027E4F0A3743CF01213BBEF64
:10055E0070030206507F0E121310900094EFF0FD00
:10056E007F2E1212D9900094E030E03090002AE0F5
:10057E00D394004007E014F07D0C800E900029E02B
:10058E00D3940040C7E014F07D097F221212D97F68
:10059E00807E3E7D007C00120E2A80B01211849067
:1005AE000094E030E65F90009E7401F0A37400F0BA
:1005BE00A37499F07B017A0079001207509000081D
:1005CE00E06402703EA3E064017038A3E0B404332B
:1005DE00D297E490009AF0900099E0FFA3E0FEC35A
:1005EE009F502274002EF582E43400F583E0FF74F0
:1005FE00492EF582E43400F583EFF090009AE00482
:10060E00F080D4C297900094E020E10302055A9046
:10061E000027E4F0A3743CF0900095E004F0D3942E
:10062E002740037425F0900095E0FD7F211212D92A
:10063E00900098E014F0E07003020DD51213CC0276
:10064E00055A900027E07002A3E0600302055A12DB
:05065E00118402055AA1
:010663002274
:1012200090FF1374A3F090FF22743AF090FFA27421
:0C12300017F090FFA37424F075A6402274
:100FDC0053A6F743A620E5A620E305E5A7B408F63B
:100FEC0053A6DF53A6F775AE24E5A7B418FB53A69A
:100FFC00F78FAEE5A7B428FB53A6F7AF058FAEE588
:0B100C00A7B428FB53A6F743A6102250
:0C1385009000DBEFF0A3EDF0A3EBF022F2
:100D250053A6F743A620E5A620E305E5A7B408F6F4
:100D350053A6DF53A6F775AE24E5A7B418FB53A653
:100D4500F78FAEE5A7B428FB53A6F743A620E5A683
:100D550020E305E5A7B408F653A6DF53A6F775AE5D
:100D650025E5A7B440FB53A6F7E5A7B458FB85AE28
:090D75001053A6F743A610AF10BD
:010D7E002252
:01006200009D
:1012870075FDF075FC0F8EFA8FF975FDD275FC2D83
:0712970075FDE175FC1E224C
:101257008DFB75FDF075FC0F8EFA8FF975FDB47572
:09126700FC4B75FDE175FC1E2233
:0D13510075FDF075FC0F75FD7875FC8722A9
:0D135E0075FDF075FC0F75FD8775FC78229C
:100F60009000CDEEF0A3EFF0A3EBF0A3EAF0A3E93D
:100F7000F0AF051DEF60289000CDE475F00112027E
:100F80002685F082F583E493FF9000CFE0FBA3E495
:100F900075F001120226A9F0FAEF1201DC80D222CC
:0513DA00EF5480FF222A
:0713D30090FE927408F02265
:1010DC0078DE7C007D017BFF7A0079627E007F01E7
:1010EC0012014E7F007E3C1212877D661212577BD6
:0B10FC00017A0079DE7D01120F600018
:0111070022C5
:1013320068656C6C6F20686F6C79636869700D000A
:1011330090FF0074CCF090FF01746CF090FFA474E6
:10114300C0F090FFA504F090FFA604F090FFA70461
:0A115300F0E4F5ABF5AD75ACD32266
:1011A8009000B0E0FCA3E0FDA3E0FEA3E0FF120284
:0111B8004DE9
:1011B90075ADC08FABE5AD30E7FB75ADC0AFAB2208
:1010AE00C2807F901211B9E4FF1211B9E4FF121140
:1010BE00B9E4FF1211B97FFF1211B9EF1201DC7FF3
:0E10CE00FF1211B9900001EF1201EED2802244
:0E134200C2807F051211B97FFF1211B9D2804F
:01135000227A
:10132100AE07C2807F011211B9AF061211B9D28086
:011331002299
:0A13A700C2807F061211B9D2802225
:0A13B100C2807F041211B9D280221D
:0F0CC8009000ADEBF0A3EAF0A3E9F0A3120295C0
:100CD700C2807F031211B978101211A87808121177
:100CE700A89000B0A3A3A3E0FF1211B9E4FDFCD3C1
:100CF7009000B5E09D9000B4E09C401F7FFF12116B
:100D0700B99000ADE0FBA3E0FAA3E0F98D828C83F4
:0D0D1700EF1201EE0DBD00010C80D4D28062
:010D240022AC
:0F09D7009000B6EBF0A3EAF0A3E9F0A3120295AB
:1009E6001213A7C2807F021211B99000B9E0FCA3CE
:1009F600E0FDA3E0FEA3E0FF781012024D1211B94C
:100A06009000B9E0FCA3E0FDA3E0FEA3E0FF7808B8
:100A160012024D1211B99000B9A3A3A3E0FF12115F
:100A2600B9E4FDFCD39000BEE09D9000BDE09C4083
:100A36001D9000B6E0FBA3E0FAA3E0F98D828C835B
:100A460012018DFF1211B90DBD00010C80D6D280A6
:030A56000213C4C4
:1012FE001213A71213C4C2807FC71211B9D2800273
:02130E0013C406
:0813C400121342EF20E0F922B0
:0D136B00C2807FB91211B9D28000000022AB
:0D137800C2807FAB1211B9D28000000022AC
:100D7F0078707C007D017BFF7A1379327E007F10C3
:100D8F0012014E1211331213A77B017A00799012C0
:100D9F0010AE7A0079709000BDE4F0A37410F07F6C
:100DAF00E87E037D007C001209D77B017A007980F1
:100DBF009000B4E4F0A37410F07FE87E037D007C14
:050DCF0000120CC80039
:010DD40022FC
:030000000208C132
:0C08C100787FE4F6D8FD7581110209086B
:10007E00E709F608DFFA8046E709F208DFFA803E64
:10008E0088828C83E709F0A3DFFA8032E309F60851
:10009E00DFFA8078E309F208DFFA807088828C83B9
:1000AE00E309F0A3DFFA806489828A83E0A3F6086D
:1000BE00DFFA805889828A83E0A3F208DFFA804C47
:1000CE0080D280FA80C680D4806980F2803380101E
:1000DE0080A680EA809A80A880DA80E280CA803387
:1000EE0089828A83ECFAE493A3C8C582C8CCC583FF
:1000FE00CCF0A3C8C582C8CCC583CCDFE9DEE780CF
:10010E000D89828A83E493A3F608DFF9ECFAA9F04D
:10011E00EDFB2289828A83ECFAE0A3C8C582C8CCA3
:10012E00C583CCF0A3C8C582C8CCC583CCDFEADEBC
:10013E00E880DB89828A83E493A3F208DFF980CC1E
:10014E0088F0EF60010E4E60C388F0ED2402B40417
:10015E000050B9F582EB2402B4040050AF232345BE
:06016E0082239000CE7315
:10017400BB010689828A83E0225002E722BBFE0289
:09018400E32289828A83E49322BC
:10018D00BB010CE58229F582E5833AF583E0225027
:10019D0006E92582F8E622BBFE06E92582F8E22271
:0D01AD00E58229F582E5833AF583E493228B
:1001BA00BB010989828A83F8E028F022500327F7D5
:1001CA0022BBFE05F8E328F3228A838982F8E493A6
:0201DA002822D9
:1001DC00BB010689828A83F0225002F722BBFE0102
:0201EC00F322FC
:1001EE00F8BB010DE58229F582E5833AF583E8F047
:1001FE00225006E92582C8F622BBFE05E92582C8F3
:02020E00F222DA
:10021000C5F0F8A3E028F0C5F0F8E5821582700279
:060220001583E038F02216
:10022600A3F8E0C5F025F0F0E5821582700215838B
:06023600E0C838F0E822E8
:10023C00EB9FF5F0EA9E42F0E99D42F0E89C45F018
:01024C00228F
:10024D00E8600FECC313FCED13FDEE13FEEF13FF8F
:03025D00D8F122B3
:100260007401FF3395E0FEFDFCA3A3A3E0CF2FF0C4
:10027000E582158270021583E0CE3EF0E58215829C
:1002800070021583E0CD3DF0E58215827002158382
:05029000E0CC3CF0226F
:0C029500ECF0A3EDF0A3EEF0A3EFF022DC
:1002A100A8828583F0D083D0821202B81202B812DC
:1002B10002B81202B8E473E493A3C583C5F0C58301
:1002C100C8C582C8F0A3C583C5F0C583C8C582C8A7
:0102D100220A
:1008CD00020C67E493A3F8E493A34003F68001F2CE
:1008DD0008DFF48029E493A3F85407240CC8C3332C
:1008ED00C4540F4420C8834004F456800146F6DFFB
:1008FD00E4800B0102040810204080900F1BE47E61
:10090D00019360BCA3FF543F30E509541FFEE493EF
:10091D00A360010ECF54C025E060A840B8E493A3B6
:10092D00FAE493A3F8E493A3C8C582C8CAC583CAE1
:10093D00F0A3C8C582C8CAC583CADFE9DEE780BE99
:010F5F000091
:00000001FF
