:060C89009000531201FD72
:100C8F00900057120209000000009000571202094D
:100C9F0000000000900053E0FCA3E0FDA3E0FEA3E2
:100CAF00E0FFA3E0F8A3E0F9A3E0FAA3E0FBC3128F
:100CBF0001A45027000000000000900057E0FCA3A3
:100CCF00E0FDA3E0FEA3E02401FFE43EFEE43DFDD2
:0B0CDF00E43CFC9000571201FD80B9BE
:010CEA0022E7
:060C220090004B1201FDE1
:100C280090004F1202090000000090004F120209C4
:100C38000000000090004BE0FCA3E0FDA3E0FEA351
:100C4800E0FFA3E0F8A3E0F9A3E0FAA3E0FBC312F6
:100C580001A4502C7F6C7E047D007C00120C8990CE
:100C6800004FE0FCA3E0FDA3E0FEA3E02401FFE4C5
:100C78003EFEE43DFDE43CFC90004F1201FD80B4D3
:010C88002249
:100F3400E4900049F0A3F01211671212881212080B
:100F44001211A3D2AF121089EF6003120BAB12027D
:100F54008F121186900049EEF0A3EFF07D147F64A8
:100F64001212651206507F647E007D007C00120C14
:030F74002280DEFA
:10116700E490FEA0F0E58F30E5FB90FE917402F06D
:0F117700538EEFE58E20E6FB90FE917404F0227C
:06128800E490FF2AF022B1
:1011DA00EF1FAC0670011E4C600C000000000000FE
:0711EA000000000080EA2272
:1012080090FF0074CCF090FF027433F090FF2174CB
:0512180080F0D28022ED
:100FEE0090FF01746CF0E4FDFCC2810000EF30E76D
:100FFE0004D2828002C28200000000D281EF25E07E
:10100E00FFEE33FE0DBD00010CED64084C70DAC22C
:03101E0081D282FA
:0110210022AC
:10111C00E4FFFE90FF0174C6F0C2810000D281EFA3
:10112C0025E0FF3082034401FF0EEEB408EB90FF84
:06113C0001746CF0C28199
:01114200228A
:10123100AB05C2807E00120FEEAF037E00120FEEEF
:03124100D2802236
:10124400E4F50EC280FE120FEE12111C8F0ED28036
:011254002277
:10105600E4F50EC280EF4420FF7E00120FEEE4F5A9
:101066000E90005DE0FFE50EC39F50141200F9FFDD
:101076007E00120FEE740129F9E43AFA050E80E1BA
:02108600D28016
:011088002245
:0B0F7700900060EBF0A3EAF0A3E9F0AB
:100F8200E4FDC280FE120FEEE4FD900063E0FFED8F
:100F9200C39F501A12111C900060E0FBA3E0FAA359
:100FA200E0F98D82758300EF1201240D80DCD2807E
:010FB200221C
:0912700020C2037F01227F00224D
:10121D0000000000000000000000000000000000C1
:04122D0000000000BD
:0A102200420092000042009400001A
:1010BB0090FF127433F090FF0A74D3F090FF0B740F
:1010CB00DDF090FF2974D3F090FF197403F090FFBB
:1010DB001A7430F043B48043B50D90FE9B7413F03B
:0110EB0022E2
:040EA000AD07AC06E8
:100EA400750C00ED540FF50DF508ECC4F854F0C8BA
:100EB40068F50CEDC4540F48F50D530D0F750C0077
:100EC400850D09ECF50D750C00530D0F750C00859F
:100ED4000D0AAE04EEC4540FF50D750C00530D0F3E
:060EE400750C00850D0BEA
:010EEA0022E5
:10095C00EFB4100040030209FF90096CF8282873CB
:10096C0002099C0209A00209A60209AC0209B502FF
:10097C0009B90209BF0209C50209CE0209D202094E
:10098C00D80209DE0209E70209EB0209F10209F7B4
:10099C00C2958002D295C296800AC295D2968004E6
:1009AC00D295D296C297C2CB22C2958002D295C262
:1009BC0096800AC295D2968004D295D296D297C2CE
:1009CC00CB22C2958002D295C296800AC295D2964D
:1009DC008004D295D296C297D2CB22C2958002D2F5
:1009EC0095C296800AC295D2968004D295D296D2A0
:0409FC0097D2CB22A1
:100EEB0020B40F20B30CAF0812095C7F147E0012E4
:100EFB0011DA20B40F30B30CAF0912095C7F147EEA
:100F0B00001211DA30B40F20B30CAF0A12095C7F58
:100F1B00147E001211DA30B40F30B30CAF0B120980
:090F2B005C7F147E001211DA2231
:1012550043B440E5B430E5FB53B4DFAFB6AEB722D7
:100A000078667C007D017BFF7A12791D7E007F1461
:100A10001200D3E4900092F0A3F0900064F0A3F0F1
:100A2000121255AC06AD07900065E025E0FF90007E
:100A300064E033FE74662FF58274003EF583ECF0BB
:100A4000A3EDF074662FF58274003EF583E0FEA3FB
:100A5000E0FF900093E02FF0900092E03EF07F14D2
:100A60007E001211DA900065E004F07006900064D8
:100A7000E004F0C3900065E0940A900064E06480B4
:100A80009480409C121255900094EEF0A3EFF01267
:050A90000EA0020EEBB8
:0812790002FFFFFF8102C0002B
:10102C0041002A00410029005E002B0201041AFF36
:10103C004C000215FDA50693A4E24FB1AFCFC6EB51
:09104C0007647825273252A8CA76
:0B12650090002AEFF0900029EDF0222D
:1011430078557C007D017BFF7A1279797E007F04DC
:101153001200D37B017A00795590005D7404F07F0F
:041163000F02105611
:071281007D017F2F021231F5
:1010EC007D517F501212317D7A7F201212317D5347
:1010FC007F50121231E4FD7F351212317D1E7F3D7F
:10110C00121231120B217D567F50121231021143F3
:100DA70078527C007D017BFF7A12797D7E007F027D
:100DB7001200D37D517F501212317D787F2012129D
:100DC700317D537F501212317D187F3D1212317DD4
:100DD700017F351212317B017A00795290005D74E0
:100DE70002F07F131210567DA07F3E1212317D56FE
:050DF7007F50021231E3
:060DFC009000521201FDFF
:100E0200900052E0FCA3E0FDA3E0FEA3E0FFA3EF0D
:100E1200F0900052A3A3A3E078081201B590005706
:100E2200EFF0900052E0FCA3E0FDA3E0FEA3E0FFA0
:100E320078101201B5E4900058EFF07B017A007946
:0C0E42005690005D7403F07F070210560C
:060E4E009000521201FDAC
:100E5400900052E0FCA3E0FDA3E0FEA3E0FFA3EFBB
:100E6400F0900052A3A3A3E078081201B5900057B4
:100E7400EFF0900052E0FCA3E0FDA3E0FEA3E0FF4E
:100E840078101201B5E4900058EFF07B017A0079F4
:0C0E94005690005D7403F07F11021056B0
:0B089F00900052EBF0A3EAF0A3E9F098
:1008AA007B017A0079599000637402F07F04120F79
:1008BA007790005AE02402FF900055E0FBA3E0FA8B
:1008CA00A3E0F9EF120112900059E0FF900052E004
:1008DA00FBA3E0FAA3E0F9EF12011290005AE0FF3D
:1008EA00900052E0FBA3E0FAA3E0F9900001EF12B6
:1008FA000124900059E0540FFE900058EFF0AF0623
:10090A00EF24FE600824FC60042406701BE924021C
:10091A00F9E43AFA9000637406F07F0B120F7790AD
:10092A000058E024FAF08005E4900058F09000584E
:10093A00E0FFD39400401A900052E0FBA3E0FAA330
:10094A00E02408F9E43AFA900063EFF07F61120FAD
:01095A007725
:01095B002279
:100B21007D037F3F1212317F1F121244900052EF5A
:100B3100F0540370F27D037F3F1212317F1F1212B6
:100B410044900052EFF0540370F27D017F35121290
:100B5100317DA07F321212317D047F2A121231E4DD
:100B6100FD7F2A1212317D887F321212319000529C
:100B71007401F0A37421F07B017A00795290005D39
:100B81007402F07F131210569000527401F0A37496
:100B910020F07B017A00795290005D7402F07F139E
:0A0BA100121056E4FD7F35021231F8
:10028F007D517F501212317D537F50121231E4FD98
:10029F007F351212317D8C7F361212317D187F3DE2
:1002AF001212317D517F501212317D537F50121235
:1002BF0031E490004BF0A3F0A304F0FB7A00794BEC
:1002CF0090005D7403F0E4FF1210567D8E7F36129E
:1002DF0012317D887F371212317D887F38121231AB
:1002EF007D8E7F391212317D517F501212317F1E58
:1002FF001212447F1F121244EFB480AE7D787F201C
:10030F001212317D067F261212317D7A7F20121252
:10031F00317D567F501212311211437B017A0079D1
:10032F004F9000637406F07F08120F777D537F5054
:10033F0012123190004B747FF0A304F07B017A000E
:10034F00794B90005D7402F07F1412105690004BA1
:10035F007402F0A37443F07B017A00794B90005D37
:10036F007402F07F0F1210567F0812124490004C47
:10037F00EFF070037412F090004B74C0F090004DCA
:10038F00742DF07B017A00794B90005D7403F07F40
:10039F000412105690004B7480F0E4A3F07B017AA6
:1003AF0000794B90005D7402F07F0C121056900094
:1003BF004B7481F0A37422F07B017A00794B90008B
:1003CF005D7402F07F131210567D027F21121231DD
:1003DF007D307F3C1212317D307F3E121231900002
:1003EF004B7438F0A3740FF0E4A3F07B017A00791B
:1003FF004B90005D7403F07F0212105690004B7407
:10040F0080F0A37470F0A37421F0A37440F07B010B
:10041F007A00794B90005D7404F07F0B1210567DBB
:10042F00717F2912123190004B7410F0A37402F0F7
:10043F007B017A00794B90005DF07F0A1210569085
:10044F00004B7402F0A37412F07B017A00794B9089
:10045F00005D7402F07F0D12105690004B7401F086
:10046F00A37407F07B017A00794B90005D7402F062
:0C047F007F0E1210567D567F5002123185
:1007B30090008C1202090001400078907C007D01BA
:1007C3007BFF7A12797F7E007F021200D37D517FF7
:1007D300501212317D537F501212317D1E7F3D1214
:1007E300123190008C74FF1201CAEC4D4E4F70F21F
:1007F3007D567F50121231E4FD7F201212317D535A
:100803007F501212317D8C7F361212317D0F7F277C
:100813001212317B017A00799090005D7402F07FAF
:10082300041210569000907424F0A3742EF07B01F0
:100833007A00799090005D7402F07F111210567D5A
:10084300517F50121231E4FD7F211212317D507F0E
:1008530025121231E4FD7F241212317D0E7F201206
:1008630012317D967F261212317DFF7FE312123102
:100873007D537F501212317D8E7F361212317D519E
:100883007F501212317D067F261212317D967F260C
:0C0893001212317D537F5012123180FE92
:100CEB007D517F501212317D537F501212317D0195
:100CFB007F351212319000967493F0E4A3F07B01D0
:100D0B007A00799690005D7402F07F141210567D74
:100D1B00307F3E121231E4FD7F311212317D487F5C
:100D2B003B121231E4900096F0A3F0A37415F07B04
:100D3B00017A00799690005D7403F07F12121056C1
:020D4B0080FE28
:10065000E490004BF0A37425F0900029E0FFA3E0A4
:100660002FFF90004FF0E4A3F0A3F0EF7003020718
:10067000B21210EC90004CE0FD7F211212317B0190
:100680007A00792B90005D741EF07FA012105690B6
:10069000004D7402F0A37424F07B017A00794D9030
:1006A000005D7402F07F0312105690004D74FFF04D
:1006B000A37480F07B017A00794D90005D7402F0A4
:1006C0007F0E1210561212817F307E757D007C00E5
:1006D000120E4E900027E4F0A3743CF0121270EF5B
:1006E000700302079F7F0E12124490004BEFF0FD43
:1006F0007F2E12123190004BE030E03090002AE063
:10070000D394004007E014F07D0C800E900029E0A7
:10071000D3940040C7E014F07D097F221212317F8C
:10072000807E3E7D007C00120DFC80B01211439053
:10073000004BE030E62C9000557401F0A37400F0FB
:10074000A37450F07B017A00790012089FE49000B6
:1007500051F0900050E0FFA3E0C39F5005E004F08B
:1007600080F090004BE020E1030206DC900027E4DB
:10077000F0A3743CF090004CE004F0D394274003C5
:100780007425F090004CE0FD7F2112123190004F53
:10079000E014F0E07003020DA71212810206DC9053
:1007A0000027E07002A3E060030206DC121143029E
:0207B00006DC65
:0107B2002224
:06128E000000000000005A
:1011F100EF1FAC0670011E4C600C000000000000E7
:071201000000000080EA225A
:100BAB007D807F11120FB37DB67F36120FB37F8816
:100BBB007E131211F1E4FD7F36120FB37D807F118E
:100BCB00120FB37D047F0F120FB37D2A7F10120F0C
:100BDB00B37D8F7F12120FB37D107F13120FB37D76
:100BEB00147F14120FB37D107F15120FB37D0C7F82
:100BFB0016120FB37D017F32120FB37D607F271268
:100C0B000FB37D607F28120FB37D607F29120FB366
:070C1B007FE87E030211F1E6
:101089007D807F11120FB37F027E001211F1E4FF00
:10109900120D4DEFC394B0400EEFD394B6500890A3
:1010A900004B7401F08005E490004BF090004BE098
:0110B900FF37
:0110BA002213
:10048B00787A7C007D017BFF7A12798E7E007F0665
:10049B001200D37F01120D4D90007AEFF07F021204
:1004AB000D4D90007BEFF07F03120D4D90007CEF14
:1004BB00F07F04120D4D90007DEFF07F05120D4D76
:1004CB0090007EEFF07F06120D4D90007FEFF0FD58
:1004DB0090007BE075F004A4FF90007AE0C4131346
:1004EB005403FBEF4BFF900080E5F0F0A3EFF0908F
:1004FB00007DE075F004A4FF90007CE0C41313545E
:10050B0003FBEF4BFF900082E5F0F0A3EFF0ED75EE
:10051B00F004A4FF90007EE0C413135403FDEF4DD1
:10052B00FF900084E5F0F0A3EFF0E4FFEF25E0246B
:10053B0080F582E43400F583E0FCA3E0B40018EC12
:10054B00B40214EF25E02480F582E43400F58374C3
:10055B00FEF0A3E4F08076EC30E172EF25E024802E
:10056B00F582E43400F58374FFF5F012018EEF256C
:10057B00E02480F582E43400F583E0FCA3E0F4FD95
:10058B00ECF4FCEF25E02480F582E43400F583ECF9
:10059B00F0A3EDF0EF25E02480F582E43400F58341
:1005AB00E05401F0EF25E02480F582E43400F5837C
:1005BB00E0FCA3E0FDC3E49DFDE49CFCEF25E024FF
:1005CB0080F582E43400F583ECF0A3EDF0EF25E049
:1005DB002480F582E43400F58374FF75F0A01201DA
:1005EB008E0FEF64036003020537900080E0FEA3DB
:1005FB00E0FF7C267D4F1201467C007D40120158A6
:10060B00900086EEF0A3EFF0900082E0FEA3E0FFF7
:10061B007C267D4F1201467C007D401201589000D4
:10062B0088EEF0A3EFF0900084E0FEA3E0FF7C26C1
:10063B007D4F1201467C007D4012015890008AEEDE
:04064B00F0A3EFF039
:01064F002288
:1011BF007F13120D4D900099EFF07D807F13120F6A
:0B11CF00B3900099E0FD7F13020FB306
:101186007F07120D4D90004BEFF07F08120D4D902A
:0C119600004CEFF0FE90004BE0FDEDFF80
:0111A200222A
:1011A30090FF1374A3F090FF22743AF090FFA2749F
:0C11B30017F090FFA37424F075A64022F2
:100FB30053A6F743A620E5A620E305E5A7B408F664
:100FC30053A6DF53A6F775AE24E5A7B418FB53A6C3
:100FD300F78FAEE5A7B428FB53A6F7AF058FAEE5B1
:0B0FE300A7B428FB53A6F743A610227A
:100D4D0053A6F743A620E5A620E305E5A7B408F6CC
:100D5D0053A6DF53A6F775AE24E5A7B418FB53A62B
:100D6D00F78FAEE5A7B428FB53A6F743A620E5A65B
:100D7D0020E305E5A7B408F653A6DF53A6F775AE35
:100D8D0025E5A7B440FB53A6F7E5A7B458FB85AE00
:090D9D000E53A6F743A610AF0E99
:010DA600222A
:03000000020A955C
:0C0A9500787FE4F6D8FD75810E020ADCC3
:10000300E709F608DFFA8046E709F208DFFA803EDF
:1000130088828C83E709F0A3DFFA8032E309F608CC
:10002300DFFA8078E309F208DFFA807088828C8334
:10003300E309F0A3DFFA806489828A83E0A3F608E8
:10004300DFFA805889828A83E0A3F208DFFA804CC2
:1000530080D280FA80C680D4806980F28033801099
:1000630080A680EA809A80A880DA80E280CA803302
:1000730089828A83ECFAE493A3C8C582C8CCC5837A
:10008300CCF0A3C8C582C8CCC583CCDFE9DEE7804A
:100093000D89828A83E493A3F608DFF9ECFAA9F0C9
:1000A300EDFB2289828A83ECFAE0A3C8C582C8CC1F
:1000B300C583CCF0A3C8C582C8CCC583CCDFEADE38
:1000C300E880DB89828A83E493A3F208DFF980CC9A
:1000D30088F0EF60010E4E60C388F0ED2402B40493
:1000E3000050B9F582EB2402B4040050AF2323453A
:0600F3008223900053730C
:1000F900BB010689828A83E0225002E722BBFE0205
:09010900E32289828A83E4932237
:10011200BB010689828A83F0225002F722BBFE01CC
:02012200F322C6
:10012400F8BB010DE58229F582E5833AF583E8F011
:10013400225006E92582C8F622BBFE05E92582C8BD
:02014400F222A5
:10014600EF8DF0A4A8F0CF8CF0A428CE8DF0A42ECD
:02015600FE2287
:10015800C2D5EC30E709B2D5E4C39DFDE49CFCEEC2
:1001680030E715B2D5E4C39FFFE49EFE12023AC3FE
:10017800E49DFDE49CFC800312023A30D507C3E4F9
:060188009FFFE49EFE2231
:10018E00C5F0F8A3E028F0C5F0F8E58215827002FC
:06019E001583E038F02299
:1001A400EB9FF5F0EA9E42F0E99D42F0E89C45F0B1
:0101B4002228
:1001B500E8600FECC313FCED13FDEE13FEEF13FF28
:0301C500D8F1224C
:1001C8007401FF3395E0FEFDFCA3A3A3E0CF2FF05D
:1001D800E582158270021583E0CE3EF0E582158235
:1001E80070021583E0CD3DF0E5821582700215831B
:0501F800E0CC3CF02208
:0C01FD00ECF0A3EDF0A3EEF0A3EFF02275
:10020900A8828583F0D083D08212022012022012A4
:100219000220120220E473E493A3C583C5F0C583C9
:10022900C8C582C8F0A3C583C5F0C583C8C582C83F
:0102390022A2
:100AA100020F34E493A3F8E493A34003F68001F228
:100AB10008DFF48029E493A3F85407240CC8C33356
:100AC100C4540F4420C8834004F456800146F6DF25
:100AD100E4800B0102040810204080901022E47E83
:100AE100019360BCA3FF543F30E509541FFEE4931A
:100AF100A360010ECF54C025E060A840B8E493A3E1
:100B0100FAE493A3F8E493A3C8C582C8CAC583CA0B
:100B1100F0A3C8C582C8CAC583CADFE9DEE780BEC3
:01105500009A
:10023A00BC000BBE0029EF8DF084FFADF022E4CCA8
:10024A00F875F008EF2FFFEE33FEEC33FCEE9DEC71
:10025A00984005FCEE9DFE0FD5F0E9E4CEFD22EDB7
:10026A00F8F5F0EE8420D21CFEADF075F008EF2F01
:10027A00FFED33FD4007985006D5F0F222C398FDF2
:05028A000FD5F0EA228F
:00000001FF
