:10118C00010D00010C004200B500004200B7000048
:060E8B0090007A120298AB
:100E910090007E1202A40000000090007E1202A4C5
:100EA1000000000090007AE0FCA3E0FDA3E0FEA3B7
:100EB100E0FFA3E0F8A3E0F9A3E0FAA3E0FBC3128B
:100EC100023F502700000000000090007EE0FCA3DC
:100ED100E0FDA3E0FEA3E02401FFE43EFEE43DFDCE
:0B0EE100E43CFC90007E12029880B9F7
:010EEC0022E3
:060E24009000721202981A
:100E2A009000761202A4000000009000761202A43C
:100E3A0000000000900072E0FCA3E0FDA3E0FEA326
:100E4A00E0FFA3E0F8A3E0F9A3E0FAA3E0FBC312F2
:100E5A00023F502C7F6C7E047D007C00120E8B902A
:100E6A000076E0FCA3E0FDA3E0FEA3E02401FFE49A
:100E7A003EFEE43DFDE43CFC90007612029880B40C
:010E8A002245
:100FA900E4900070F0A3F01200031213FA12147304
:100FB9001213C3C2BAD2AF1212ACEF6003120DAD55
:100FC90012032AD2969000B474F4F0E49000B3F0BE
:100FD900C2BA9000B4E0FF9000B3E0FD1215001210
:100FE90006EB7F647E007D007C00120E24D2BA439A
:060FF9008703C29780DAB5
:10145E00D3EF9400EE9400400B7D64DDFEEF1F7021
:04146E00EF1E80EC01
:011472002257
:10000300E490FEA0F0E58F30E5FB90FE917402F0E2
:0F001300538EEFE58E20E6FB90FE917404F022F1
:030023000213DFE6
:1013DF00C0E0E59830E0115398FEE599540FF50DF4
:0B13EF00750C015398EFC2ACD0E03247
:0B14F5008F99E59830E1FB5398FD2231
:10149C0012015CFF600C1214F5740129F9E43AFA9C
:0314AC0080EE22AD
:100D2F007B007A0079089000C3EBF0A3EAF0A3E907
:100D3F00F0EFC4540F24301201979000C3E0FBA3CF
:100D4F00E0FAA3E0F912015CD3943940057427123D
:100D5F000175EF540F2430FF9000C3E0FBA3E4753F
:100D6F00F001120213A9F0FAEF1201979000C3E0FD
:100D7F00FBA3E0FAA3E0F912015CD39439400574A8
:100D8F00271201759000C3E0FBA3E475F001120276
:0D0D9F0013A9F0FAE4120197FB7A0079081D
:010DAC002224
:100A2C009000C6E4F0A37400F0A37408F0EFD39424
:100A3C00634049EF75F064842430FE9000C6E0FBFF
:100A4C00A3E475F001120229A9F0FAEE120197EF56
:100A5C0075F06484AFF0EF75F00A842430FE9000DA
:100A6C00C6E0FBA3E475F001120229A9F0FAEE121C
:100A7C000197EF75F00A84AFF0EF802CEFD3940957
:100A8C00EF402575F00A842430FE9000C6E0FBA3ED
:100A9C00E475F001120229A9F0FAEE120197EF7534
:100AAC00F00A84AFF0EF80002430FF9000C6E0FB2A
:100ABC00A3E0FAA3E0F9EF1201979000C6E0FBA3C4
:100ACC00E475F001120213A9F0FAE4120197FB7A13
:030ADC0000790896
:010ADF0022F4
:1013FA00E490FF2AF090FF0B74CCF0C296C297904B
:0B140A00FF1AE054F0F0E04405F0226F
:1013A70090FF0B7482F090FFA0740FF0A314F075F8
:0C13B7009DFE759C5F759E1243981022ED
:0300630002120B7B
:10120B00C0E0C083C082C0D09000B6E004F070068E
:10121B009000B5E004F053BC7FC39000B6E094039C
:10122B009000B5E094004009E4F0A3F0C2BA5387F4
:0A123B00FCD0D0D082D083D0E03286
:1014C200438F04E58F30E6FB75BC1F90FF847403E5
:0214D200F02206
:10143000EF1FAC0670011E4C600C000000000000A5
:071440000000000080EA2219
:1014730090FF0074CCF090FF027433F090FF21745E
:0514830080F0D2802280
:1012450090FF01746CF0E4FDFCC2810000EF30E713
:1012550004D2828002C28200000000D281EF25E024
:10126500FFEE33FE0DBD00010CED64084C70DAC2D3
:0312750081D282A1
:011278002253
:10133F00E4FFFE90FF0174C6F0C2810000D281EF7E
:10134F0025E0FF3082034401FF0EEEB408EB90FF5F
:06135F0001746CF0C28174
:011365002265
:1014AF00AB05C2807E00121245AF037E00121245BB
:0314BF00D28022B6
:1014D400E4F514C280FE12124512133F8F14D28019
:0114E40022E5
:10127900E4F514C280EF4420FF7E00121245E4F524
:1012890014900084E0FFE514C39F501412015CFF21
:101299007E00121245740129F9E43AFA051480E135
:0212A900D280F1
:0112AB002220
:0B002600900087EBF0A3EAF0A3E9F0E4
:10003100E4FDC280FE121245E4FD90008AE0FFED6E
:10004100C39F501A12133F900087E0FBA3E0FAA36D
:10005100E0F98D82758300EF1201A90D80DCD28059
:01006100227C
:09150B0020C2037F01227F0022AF
:101488000000000000000000000000000000000054
:041498000000000050
:0A119C004200BF00004200C1000045
:1012DE0090FF127433F090FF0A74D3F090FF0B74EA
:1012EE00DDF090FF2974D3F090FF197403F090FF96
:1012FE001A7430F043B48043B50D90FE9B7413F016
:01130E0022BC
:0410F800AD07AC068E
:1010FC00751200ED540FF513F50EECC4F854F0C84E
:10110C0068F512EDC4540F48F51353130F75120004
:10111C0085130FECF51375120053130F7512008520
:10112C001310AE04EEC4540FF51375120053130FC5
:06113C007512008513117D
:01114200228A
:100AE000EFB410004003020B83900AF0F82828733B
:100AF000020B20020B24020B2A020B30020B3902DC
:100B00000B3D020B43020B49020B52020B56020B28
:100B10005C020B62020B6B020B6F020B75020B7B0C
:100B2000C2958002D295C296800AC295D296800460
:100B3000D295D296C297C2CB22C2958002D295C2DC
:100B400096800AC295D2968004D295D296D297C248
:100B5000CB22C2958002D295C296800AC295D296C7
:100B60008004D295D296C297D2CB22C2958002D26F
:100B700095C296800AC295D2968004D295D296D21A
:040B800097D2CB221B
:1011430020B40F20B30CAF0E120AE07F147E0012FE
:10115300143020B40F30B30CAF0F120AE07F147EAB
:101163000012143030B40F20B30CAF10120AE07F1A
:10117300147E0012143030B40F30B30CAF11120AC6
:09118300E07F147E0012143022FA
:1014E50043B440E5B430E5FB53B4DFAFB6AEB72245
:100B8400788D7C007D017BFF7A1479887E007F1448
:100B9400120136E49000BFF0A3F090008BF0A3F0B4
:100BA4001214E5AC06AD0790008CE025E0FF900040
:100BB4008BE033FE748D2FF58274003EF583ECF0E8
:100BC400A3EDF0748D2FF58274003EF583E0FEA34F
:100BD400E0FF9000C0E02FF09000BFE03EF07F14F3
:100BE4007E0012143090008CE004F0700690008BAC
:100BF400E004F0C390008CE0940A90008BE06480E1
:100C04009480409C1214E59000C1EEF0A3EFF01222
:050C140010F80211437D
:0815140002FFFFFF8102C0008D
:1011A60041002A00410029005E002B0201041AFFBB
:1011B6004C000215FDA50693A4E24FB1AFCFC6EBD6
:0911C60007647825273252A8CAFB
:0B15000090002AEFF0900029EDF0228F
:10136600787C7C007D017BFF7A1579147E007F04F2
:101376001201367B017A00797C9000847404F07F38
:041386000F021279C7
:07151C007D017F2F0214AFD7
:10130F007D517F501214AF7D7A7F201214AF7D5321
:10131F007F501214AFE4FD7F351214AF7D1E7F3D59
:10132F001214AF120CA57D567F501214AF02136624
:100FFF0078797C007D017BFF7A1579187E007F025E
:10100F001201367D517F501214AF7D787F2012145C
:10101F00AF7D537F501214AF7D187F3D1214AF7DFB
:10102F00017F351214AF7B017A00797990008474B7
:10103F0002F07F131212797DA07F3E1214AF7D56FE
:05104F007F500214AF08
:06105400900079120298E1
:10105A00900079E0FCA3E0FDA3E0FEA3E0FFA3EF8C
:10106A00F0900079A3A3A3E0780812025090007EC2
:10107A00EFF0900079E0FCA3E0FDA3E0FEA3E0FF1F
:10108A007810120250E490007FEFF07B017A007929
:0C109A007D9000847403F07F070212793F
:0610A6009000791202988F
:1010AC00900079E0FCA3E0FDA3E0FEA3E0FFA3EF3A
:1010BC00F0900079A3A3A3E0780812025090007E70
:1010CC00EFF0900079E0FCA3E0FDA3E0FEA3E0FFCD
:1010DC007810120250E490007FEFF07B017A0079D7
:0C10EC007D9000847403F07F11021279E3
:0B096F00900079EBF0A3EAF0A3E9F0A0
:10097A007B017A00798090008A7402F07F04120069
:10098A0026900081E02402FF90007CE0FBA3E0FABD
:10099A00A3E0F9EF120197900080E0FF900079E060
:1009AA00FBA3E0FAA3E0F9EF120197900081E0FFC0
:1009BA00900079E0FBA3E0FAA3E0F9900001EF12BE
:1009CA0001A9900080E0540FFE90007FEFF0AF067F
:1009DA00EF24FE600824FC60042406701BE924024C
:1009EA00F9E43AFA90008A7406F07F0B1200269016
:1009FA00007FE024FAF08005E490007FF090007F09
:100A0A00E0FFD39400401A900079E0FBA3E0FAA338
:100A1A00E02408F9E43AFA90008AEFF07F611200C4
:010A2A0026A5
:010A2B0022A8
:100CA5007D037F3F1214AF7F1F1214D4900079EF9C
:100CB500F0540370F27D037F3F1214AF7F1F1214AF
:100CC500D4900079EFF0540370F27D017F35121452
:100CD500AF7DA07F321214AF7D047F2A1214AFE4DA
:100CE500FD7F2A1214AF7D887F321214AF900079F0
:100CF5007401F0A37421F07B017A00797990008466
:100D05007402F07F131212799000797401F0A374C4
:100D150020F07B017A0079799000847402F07F13CA
:0A0D2500121279E4FD7F350214AFCD
:10032A007D517F501214AF7D537F501214AFE4FDFC
:10033A007F351214AF7D8C7F361214AF7D187F3D46
:10034A001214AF7D517F501214AF7D537F50121497
:10035A00AFE4900072F0A3F0A304F0FB7A00797284
:10036A009000847403F0E4FF1212797D8E7F3612B6
:10037A0014AF7D887F371214AF7D887F381214AF8F
:10038A007D8E7F391214AF7D517F501214AF7F1EBC
:10039A001214D47F1F1214D4EFB480AE7D787F205C
:1003AA001214AF7D067F261214AF7D7A7F201214B5
:1003BA00AF7D567F501214AF1213667B017A007913
:1003CA007690008A7406F07F081200267D537F50CB
:1003DA001214AF900072747FF0A304F07B017A00CC
:1003EA0079729000847402F07F141212799000726C
:1003FA007402F0A37443F07B017A0079729000844E
:10040A007402F07F0F1212797F081214D4900073CD
:10041A00EFF070037412F090007274C0F0900074E0
:10042A00742DF07B017A0079729000847403F07F56
:10043A00041212799000727480F0E4A3F07B017ABE
:10044A000079729000847402F07F0C121279900085
:10045A00727481F0A37422F07B017A0079729000A1
:10046A00847402F07F131212797D027F211214AF75
:10047A007D307F3C1214AF7D307F3E1214AF900066
:10048A00727438F0A3740FF0E4A3F07B017A007958
:10049A00729000847403F07F0212127990007274D1
:1004AA0080F0A37470F0A37421F0A37440F07B0170
:1004BA007A0079729000847404F07F0B1212797DAD
:1004CA00717F291214AF9000727410F0A37402F0B5
:1004DA007B017A007972900084F07F0A1212799077
:1004EA0000727402F0A37412F07B017A00797290A0
:1004FA0000847402F07F0D1212799000727401F078
:10050A00A37407F07B017A0079729000847402F078
:0C051A007F0E1212797D567F500214AF44
:100883009000B91202A40001400078BD7C007D01F4
:100893007BFF7A15791A7E007F021201367D517F24
:1008A300501214AF7D537F501214AF7D1E7F3D1243
:1008B30014AF9000B974FF120265EC4D4E4F70F205
:1008C3007D567F501214AFE4FD7F201214AF7D5389
:1008D3007F501214AF7D8C7F361214AF7D0F7F27AC
:1008E3001214AF7B017A0079BD9000847402F07F0B
:1008F300041212799000BD7424F0A3742EF07B01CE
:100903007A0079BD9000847402F07F111212797D10
:10091300517F501214AFE4FD7F211214AF7D507F3D
:10092300251214AFE4FD7F241214AF7D0E7F201235
:1009330014AF7D967F261214AF7DFF7FE31214AFB1
:100943007D537F501214AF7D8E7F361214AF7D51CD
:100953007F501214AF7D067F261214AF7D967F263B
:0C0963001214AF7D537F501214AF80FEC1
:100EED007D517F501214AF7D537F501214AF7D0191
:100EFD007F351214AF9000C97493F0E4A3F07B0119
:100F0D007A0079C99000847402F07F141212797DF1
:100F1D00307F3E1214AFE4FD7F311214AF7D487F58
:100F2D003B1214AFE49000C9F0A3F0A37415F07B4D
:100F3D00017A0079C99000847403F07F121212793E
:020F4D0080FE24
:1006EB00E4900072F0A37425F0900029E0FFA3E0E2
:1006FB002FFF900076F0E4A3F0A3F0EF7003020855
:10070B008212130F900073E0FD7F211214AF7B0157
:10071B007A00792B900084741EF07FA012127990CE
:10072B0000747402F0A37424F07B017A0079749046
:10073B0000847402F07F0312127990007474FFF03E
:10074B00A37480F07B017A0079749000847402F0BA
:10075B007F0E12127912151C7F307E757D007C0086
:10076B001210A6900027E4F0A3743CF012150BEFC7
:10077B00700302086F7F0E1214D4900072EFF0FD1D
:10078B007F2E1214AF900072E030E03090002AE020
:10079B00D394004007E014F07D0C800E900029E00C
:1007AB00D3940040C7E014F07D097F221214AF7F71
:1007BB00807E3E7D007C0012105480B01213669038
:1007CB000072E030E66190007C7401F0A37400F0DD
:1007DB00A37477F07B017A00790012096F900008FF
:1007EB00E064027042A3E06401703CA3E064047017
:1007FB0036A3E0B41A31E4900078F0900077E0FF74
:10080B00A3E0FEC39F502074002EF582E43400F564
:10081B0083E0FF74492EF582E43400F583EFF0900A
:10082B000078E004F080D4900072E020E10302072E
:10083B0077900027E4F0A3743CF0900073E004F091
:10084B00D3942740037425F0900073E0FD7F2112B1
:10085B0014AF900076E014F0E07003020FFF121556
:10086B001C020777900027E07002A3E060030207E9
:07087B0077121366020777F4
:010882002253
:06152300000000000000C2
:10144700EF1FAC0670011E4C600C0000000000008E
:071457000000000080EA2202
:100DAD007D807F111211D07DB67F361211D07F88D4
:100DBD007E13121447E4FD7F361211D07D047F0F90
:100DCD001211D07D077F101211D07DCB7F11121122
:100DDD00D07D8F7F121211D07D127F131211D07D15
:100DED000D7F141211D07D147F151211D07D0C7F43
:100DFD00161211D07D017F321211D07D607F271226
:100E0D0011D07D607F281211D07D607F291211D005
:070E1D007FE87E0302144789
:1012AC007D807F111211D07F027E00121447E4FF63
:1012BC00120F4FEFC394B0400EEFD394B65008907A
:1012CC0000727401F08005E4900072F0900072E0FE
:0112DC00FF12
:0112DD0022EE
:1005260078A17C007D017BFF7A1579237E007F060A
:100536001201367F01120F4F9000A1EFF07F0212D9
:100546000F4F9000A2EFF07F03120F4F9000A3EF22
:10055600F07F04120F4F9000A4EFF07F05120F4FAB
:100566009000A5EFF07F06120F4F9000A6EFF0FD6A
:100576009000A2E075F004A4FF9000A1E0C413135C
:100586005403FBEF4BFF9000A7E5F0F0A3EFF090CC
:1005960000A4E075F004A4FF9000A3E0C413135474
:1005A60003FBEF4BFF9000A9E5F0F0A3EFF0ED752C
:1005B600F004A4FF9000A5E0C413135403FDEF4D0F
:1005C600FF9000ABE5F0F0A3EFF0E4FFEF25E024A9
:1005D600A7F582E43400F583E0FCA3E0B40018EC50
:1005E600B40214EF25E024A7F582E43400F5837401
:1005F600FEF0A3E4F08076EC30E172EF25E024A76C
:10060600F582E43400F58374FFF5F0120213EF254A
:10061600E024A7F582E43400F583E0FCA3E0F4FDD2
:10062600ECF4FCEF25E024A7F582E43400F583EC36
:10063600F0A3EDF0EF25E024A7F582E43400F5837E
:10064600E05401F0EF25E024A7F582E43400F583B9
:10065600E0FCA3E0FDC3E49DFDE49CFCEF25E02463
:10066600A7F582E43400F583ECF0A3EDF0EF25E086
:1006760024A7F582E43400F58374FF75F0A0120216
:10068600130FEF640360030205D29000A7E0FEA3F8
:10069600E0FF7C267D4F1201CB7C007D401201DD00
:1006A6009000ADEEF0A3EFF09000A9E0FEA3E0FF0E
:1006B6007C267D4F1201CB7C007D401201DD90002F
:1006C600AFEEF0A3EFF09000ABE0FEA3E0FF7C26D8
:1006D6007D4F1201CB7C007D401201DD9000B1EE12
:0406E600F0A3EFF09E
:0106EA0022ED
:101415007F13120F4F9000CEEFF07D807F131211D6
:0B142500D09000CEE0FD7F130211D03C
:10138A007F07120F4F9000CCEFF07F08120F4F909B
:0C139A0000CDEFF0FE9000CCE0FDEDFF78
:0113A6002224
:1013C30090FF1374A3F090FF22743AF090FFA2747D
:0C13D30017F090FFA37424F075A64022D0
:1011D00053A6F743A620E5A620E305E5A7B408F645
:1011E00053A6DF53A6F775AE24E5A7B418FB53A6A4
:1011F000F78FAEE5A7B428FB53A6F7AF058FAEE592
:0B120000A7B428FB53A6F743A610225A
:100F4F0053A6F743A620E5A620E305E5A7B408F6C8
:100F5F0053A6DF53A6F775AE24E5A7B418FB53A627
:100F6F00F78FAEE5A7B428FB53A6F743A620E5A657
:100F7F0020E305E5A7B408F653A6DF53A6F775AE31
:100F8F0025E5A7B440FB53A6F7E5A7B458FB85AEFC
:090F9F001453A6F743A610AF1489
:010FA8002226
:03000000020C19D6
:0C0C1900787FE4F6D8FD758114020C60B1
:10006600E709F608DFFA8046E709F208DFFA803E7C
:1000760088828C83E709F0A3DFFA8032E309F60869
:10008600DFFA8078E309F208DFFA807088828C83D1
:10009600E309F0A3DFFA806489828A83E0A3F60885
:1000A600DFFA805889828A83E0A3F208DFFA804C5F
:1000B60080D280FA80C680D4806980F28033801036
:1000C60080A680EA809A80A880DA80E280CA80339F
:1000D60089828A83ECFAE493A3C8C582C8CCC58317
:1000E600CCF0A3C8C582C8CCC583CCDFE9DEE780E7
:1000F6000D89828A83E493A3F608DFF9ECFAA9F066
:10010600EDFB2289828A83ECFAE0A3C8C582C8CCBB
:10011600C583CCF0A3C8C582C8CCC583CCDFEADED4
:10012600E880DB89828A83E493A3F208DFF980CC36
:1001360088F0EF60010E4E60C388F0ED2402B4042F
:100146000050B9F582EB2402B4040050AF232345D6
:0601560082239000B67345
:10015C00BB010689828A83E0225002E722BBFE02A1
:09016C00E32289828A83E49322D4
:10017500BB010989828A83F8E028F022500327F71A
:1001850022BBFE05F8E328F3228A838982F8E493EB
:0201950028221E
:10019700BB010689828A83F0225002F722BBFE0147
:0201A700F32241
:1001A900F8BB010DE58229F582E5833AF583E8F08C
:1001B900225006E92582C8F622BBFE05E92582C838
:0201C900F22220
:1001CB00EF8DF0A4A8F0CF8CF0A428CE8DF0A42E48
:0201DB00FE2202
:1001DD00C2D5EC30E709B2D5E4C39DFDE49CFCEE3D
:1001ED0030E715B2D5E4C39FFFE49EFE1202D5C3DE
:1001FD00E49DFDE49CFC80031202D530D507C3E4D9
:06020D009FFFE49EFE22AB
:10021300C5F0F8A3E028F0C5F0F8E5821582700276
:060223001583E038F02213
:10022900A3F8E0C5F025F0F0E58215827002158388
:06023900E0C838F0E822E5
:10023F00EB9FF5F0EA9E42F0E99D42F0E89C45F015
:01024F00228C
:10025000E8600FECC313FCED13FDEE13FEEF13FF8C
:03026000D8F122B0
:100263007401FF3395E0FEFDFCA3A3A3E0CF2FF0C1
:10027300E582158270021583E0CE3EF0E582158299
:1002830070021583E0CD3DF0E5821582700215837F
:05029300E0CC3CF0226C
:0C029800ECF0A3EDF0A3EEF0A3EFF022D9
:1002A400A8828583F0D083D0821202BB1202BB12D3
:1002B40002BB1202BBE473E493A3C583C5F0C583F8
:1002C400C8C582C8F0A3C583C5F0C583C8C582C8A4
:0102D4002207
:100C2500020FA9E493A3F8E493A34003F68001F22D
:100C350008DFF48029E493A3F85407240CC8C333D0
:100C4500C4540F4420C8834004F456800146F6DF9F
:100C5500E4800B010204081020408090118CE47E92
:100C6500019360BCA3FF543F30E509541FFEE49394
:100C7500A360010ECF54C025E060A840B8E493A35B
:100C8500FAE493A3F8E493A3C8C582C8CAC583CA86
:100C9500F0A3C8C582C8CAC583CADFE9DEE780BE3E
:0111CF00001F
:1002D500BC000BBE0029EF8DF084FFADF022E4CC0D
:1002E500F875F008EF2FFFEE33FEEC33FCEE9DECD6
:1002F500984005FCEE9DFE0FD5F0E9E4CEFD22ED1C
:10030500F8F5F0EE8420D21CFEADF075F008EF2F65
:10031500FFED33FD4007985006D5F0F222C398FD56
:050325000FD5F0EA22F3
:00000001FF
