:1011AF00010F00010E00010D000108004200B900FF
:0B11BF00004200B700004200BB00002F
:060F980090007A1202B085
:100F9E0090007E1202BC0000000090007E1202BC87
:100FAE000000000090007AE0FCA3E0FDA3E0FEA3A9
:100FBE00E0FFA3E0F8A3E0F9A3E0FAA3E0FBC3127D
:100FCE000257502700000000000090007EE0FCA3B6
:100FDE00E0FDA3E0FEA3E02401FFE43EFEE43DFDC0
:0B0FEE00E43CFC90007E1202B080B9D1
:010FF90022D5
:060ECC009000721202B05A
:100ED2009000761202BC000000009000761202BC64
:100EE20000000000900072E0FCA3E0FDA3E0FEA37E
:100EF200E0FFA3E0F8A3E0F9A3E0FAA3E0FBC3124A
:100F02000257502C7F6C7E047D007C00120F98905B
:100F12000076E0FCA3E0FDA3E0FEA3E02401FFE4F1
:100F22003EFEE43DFDE43CFC9000761202B080B44B
:010F3200229C
:100DD900E4900070F0A3F012149B12152B1215BEAB
:100DE90012006612150F12160C1215AAD2AF1213A1
:100DF900BDEF6003120E55120342D297D2969000AE
:100E0900B674F4F0E49000B5F09000B9E07002A374
:100E1900E070F6C2BA1214BA900070EEF0A3EFF0C7
:100E29009000B6E0FF9000B5E0FD12164A90007000
:100E3900E0FEA3E0FF1207037F647E007D007C00D3
:0C0E4900120ECCD2BA438703C29780BDC2
:10000E00D3EF9400EE9400400B7D64DDFEEF1F7085
:04001E00EF1E80EC65
:0100220022BB
:10149B00E490FEA0F0E58F30E5FB90FE917402F036
:0F14AB00538EEFE58E20E6FB90FE917404F02245
:03007B000211FE71
:1011FE00C0E0C0F0C083C082C0D075D000C000C0B7
:10120E0001C002C003C004C005C006C007E5963089
:10121E00E4105396EF7D017C00E4FFFE1214D743D9
:10122E00A802D007D006D005D004D003D002D0013A
:0D123E00D000D0D0D082D083D0F0D0E032EC
:10160C0090FEB1E04401F090FEB8E04410F043B815
:02161C0020228A
:03000B00020F33AE
:100F3300C0E0C083C082C0D075D000C006C00753D4
:100F430088DF9000B8E004F070069000B7E004F08A
:100F53009000B7E0FEA3E0FF64024E700630B403D6
:100F6300750D01EF64064E700F20B40CE50D60089B
:100F7300750D00B29753A8FDEF64144E700A30B498
:100F830007F50DB29653A8FDD007D006D0D0D08276
:050F9300D083D0E03224
:1015AA00E490FE80F0F589758C7D758A8843A802DF
:0415BA005388E02250
:1014D700EF4E600CED4C6004438840225388B022E5
:0C14E700ED4C6004438810225388E02282
:10152B00E490FF2AF090FF0B74CCF0C296C2979018
:0B153B00FF1AE054F0F0E04405F0223D
:030023000215467D
:10154600C0E0E59830E0115398FEE599540FF50F89
:0B155600750E015398EFC2ACD0E032DC
:1014F30090FF0B7482F090FFA0740FF0A314F075AB
:0C1503009DFE759C5F759E12439810229F
:0300630002002672
:10002600C0E0C083C082C0D09000BAE004F0700681
:100036009000B9E004F053BC7FC39000BAE094038B
:100046009000B9E09400400BD297E4F0A3F0C2BA56
:0C0056005387FCD0D0D082D083D0E032A1
:1015BE00438F04E58F30E6FB75BC1F90FF847403E8
:0415CE00F0C2BA228B
:0B163F008F99E59830E1FB5398FD22E5
:1015E600120174FF600C12163F740129F9E43AFAED
:0315F60080EE2262
:100D5B007B007A0079099000C7EBF0A3EAF0A3E9D6
:100D6B00F0EFC4540F24301201AF9000C7E0FBA387
:100D7B00E0FAA3E0F9120174D394394005742712F9
:100D8B00018DEF540F2430FF9000C7E0FBA3E475F7
:100D9B00F00112022BA9F0FAEF1201AF9000C7E09D
:100DAB00FBA3E0FAA3E0F9120174D3943940057464
:100DBB002712018D9000C7E0FBA3E475F00112022E
:0D0DCB002BA9F0FAE41201AFFB7A007909C0
:010DD80022F8
:100A58009000CAE4F0A37400F0A37409F0EFD394F3
:100A6800634049EF75F064842430FE9000CAE0FBCF
:100A7800A3E475F001120241A9F0FAEE1201AFEFFA
:100A880075F06484AFF0EF75F00A842430FE9000AE
:100A9800CAE0FBA3E475F001120241A9F0FAEE12D4
:100AA80001AFEF75F00A84AFF0EF802CEFD3940913
:100AB800EF402575F00A842430FE9000CAE0FBA3BD
:100AC800E475F001120241A9F0FAEE1201AFEF75D8
:100AD800F00A84AFF0EF80002430FF9000CAE0FBFA
:100AE800A3E0FAA3E0F9EF1201AF9000CAE0FBA37C
:100AF800E475F00112022BA9F0FAE41201AFFB7AB7
:030B080000790968
:010B0B0022C7
:10157C00EF1FAC0670011E4C600C00000000000058
:07158C000000000080EA22CC
:1000660090FF0074CCF090FF027433F090FF21747F
:0500760080F0D28022A1
:1013560090FF01746CF0E4FDFCC2810000EF30E701
:1013660004D2828002C28200000000D281EF25E012
:10137600FFEE33FE0DBD00010CED64084C70DAC2C1
:0313860081D2828F
:011389002241
:10145000E4FFFE90FF0174C6F0C2810000D281EF6C
:1014600025E0FF3082034401FF0EEEB408EB90FF4D
:0614700001746CF0C28162
:011476002253
:1015F900AB05C2807E00121356AF037E001213564C
:03160900D280226A
:10161E00E4F516C280FE1213561214508F16D280A5
:01162E002299
:10138A00E4F516C280EF4420FF7E00121356E4F5FE
:10139A0016900086E0FFE516C39F5014120174FFF1
:1013AA007E00121356740129F9E43AFA051680E10F
:0213BA00D280DF
:0113BC00220E
:0B12DF00900089EBF0A3EAF0A3E9F017
:1012EA00E4FDC280FE121356E4FD90008CE0FFED8F
:1012FA00C39F501A121450900089E0FBA3E0FAA38E
:10130A00E0F98D82758300EF1201C10D80DCD28075
:01131A0022B0
:0916550020C2037F01227F002264
:1015D2000000000000000000000000000000000009
:0415E2000000000005
:0A11CA004200C300004200C500000F
:1013EF0090FF127433F090FF0A74D3F090FF0B74D8
:1013FF00DDF090FF2974D3F090FF197403F090FF84
:10140F001A7430F043B48043B50D90FE9B7413F003
:01141F0022AA
:04124B00AD07AC0639
:10124F00751400ED540FF515F510ECC4F854F0C8F3
:10125F0068F514EDC4540F48F51553150F751400A8
:10126F00851511ECF51575140053150F75140085C0
:10127F001512AE04EEC4540FF51575140053150F67
:06128F0075140085151323
:011295002236
:100B0C00EFB410004003020BAF900B1CF8282873B5
:100B1C00020B4C020B50020B56020B5C020B6502D3
:100B2C000B69020B6F020B75020B7E020B82020B20
:100B3C0088020B8E020B97020B9B020BA1020BA7D8
:100B4C00C2958002D295C296800AC295D296800434
:100B5C00D295D296C297C2CB22C2958002D295C2B0
:100B6C0096800AC295D2968004D295D296D297C21C
:100B7C00CB22C2958002D295C296800AC295D2969B
:100B8C008004D295D296C297D2CB22C2958002D243
:100B9C0095C296800AC295D2968004D295D296D2EE
:040BAC0097D2CB22EF
:1012960020B40F20B30CAF10120B0C7F147E00127B
:1012A600157C20B40F30B30CAF11120B0C7F147EDB
:1012B6000012157C30B40F20B30CAF12120B0C7F4A
:1012C600147E0012157C30B40F30B30CAF13120B22
:0912D6000C7F147E0012157C222D
:10162F0043B440E5B430E5FB53B4DFAFB6AEB722F9
:100BB000788F7C007D017BFF7A1579D27E007F14CF
:100BC00012014EE49000C3F0A3F090008DF0A3F06A
:100BD00012162FAC06AD0790008EE025E0FF9000C6
:100BE0008DE033FE748F2FF58274003EF583ECF0B8
:100BF000A3EDF0748F2FF58274003EF583E0FEA321
:100C0000E0FF9000C4E02FF09000C3E03EF07F14BE
:100C10007E0012157C90008EE004F0700690008D2E
:100C2000E004F0C390008EE0940A90008DE06480B0
:100C30009480409C12162F9000C5EEF0A3EFF012A6
:050C4000124B021296A8
:0800030002FFFFFF8102C000B3
:1011D40041002A00410029005E002B0201041AFF8D
:1011E4004C000215FDA50693A4E24FB1AFCFC6EBA8
:0911F40007647825273252A8CACD
:0B164A0090002AEFF0900029EDF02244
:10147700787C7C007D017BFF7A0079037E007F0406
:1014870012014E7B017A00797C9000867404F07F0C
:041497000F02138AA3
:07165E007D017F2F0215F949
:101420007D517F501215F97D7A7F201215F97D5379
:101430007F501215F9E4FD7F351215F97D1E7F3DB1
:101440001215F9120CD17D567F501215F90214773E
:1010B600787B7C007D017BFF7A0079077E007F02CA
:1010C60012014E7D517F501215F97D787F20121541
:1010D600F97D537F501215F97D187F3D1215F97D64
:1010E600017F351215F97B017A00797B90008674B1
:1010F60002F07F1312138A7DA07F3E1215F97D56EA
:051106007F500215F905
:06110B0090007B1202B00F
:1011110090007BE0FCA3E0FDA3E0FEA3E0FFA3EFD2
:10112100F090007BA3A3A3E07808120268900080EE
:10113100EFF090007BE0FCA3E0FDA3E0FEA3E0FF65
:101141007810120268E4900081EFF07B017A007957
:0C1151007F9000867403F07F0702138A71
:06115D0090007B1202B0BD
:1011630090007BE0FCA3E0FDA3E0FEA3E0FFA3EF80
:10117300F090007BA3A3A3E078081202689000809C
:10118300EFF090007BE0FCA3E0FDA3E0FEA3E0FF13
:101193007810120268E4900081EFF07B017A007905
:0C11A3007F9000867403F07F1102138A15
:0B099B0090007BEBF0A3EAF0A3E9F072
:1009A6007B017A00798290008C7402F07F04121227
:1009B600DF900083E02402FF90007EE0FBA3E0FAD4
:1009C600A3E0F9EF1201AF900082E0FF90007BE018
:1009D600FBA3E0FAA3E0F9EF1201AF900083E0FF7A
:1009E60090007BE0FBA3E0FAA3E0F9900001EF1290
:1009F60001C1900082E0540FFE900081EFF0AF0637
:100A0600EF24FE600824FC60042406701BE924021F
:100A1600F9E43AFA90008C7406F07F0B1212DF901C
:100A26000081E024FAF08005E4900081F0900081D6
:100A3600E0FFD39400401A90007BE0FBA3E0FAA30A
:100A4600E02408F9E43AFA90008CEFF07F61121284
:010A5600DFC0
:010A5700227C
:100CD1007D037F3F1215F97F1F12161E90007BEFD7
:100CE100F0540370F27D037F3F1215F97F1F121636
:100CF1001E90007BEFF0540370F27D017F351215D9
:100D0100F97DA07F321215F97D047F2A1215F9E4CD
:100D1100FD7F2A1215F97D887F321215F990007B2B
:100D21007401F0A37421F07B017A00797B90008635
:100D31007402F07F1312138A90007B7401F0A37484
:100D410020F07B017A00797B9000867402F07F139A
:0A0D510012138AE4FD7F350215F944
:100342007D517F501215F97D537F501215F9E4FD4E
:100352007F351215F97D8C7F361215F97D187F3D98
:100362001215F97D517F501215F97D537F501215E8
:10037200F9E4900072F0A3F0A304F0FB7A00797222
:100382009000867403F0E4FF12138A7D8E7F36128A
:1003920015F97D887F371215F97D887F381215F996
:1003A2007D8E7F391215F97D517F501215F97F1E0E
:1003B20012161E7F1F12161EEFB480AE7D787F20AC
:1003C2001215F97D067F261215F97D7A7F20121506
:1003D200F97D567F501215F91214777B017A007954
:1003E2007690008C7406F07F081212DF7D537F50E6
:1003F2001215F9900072747FF0A304F07B017A0069
:1004020079729000867402F07F1412138A9000723F
:100412007402F0A37443F07B017A00797290008633
:100422007402F07F0F12138A7F0812161E90007357
:10043200EFF070037412F090007274C0F0900074C8
:10044200742DF07B017A0079729000867403F07F3C
:100452000412138A9000727480F0E4A3F07B017A94
:100462000079729000867402F07F0C12138A900059
:10047200727481F0A37422F07B017A007972900089
:10048200867402F07F1312138A7D027F211215F9FE
:100492007D307F3C1215F97D307F3E1215F99000B8
:1004A200727438F0A3740FF0E4A3F07B017A007940
:1004B200729000867403F07F0212138A90007274A5
:1004C20080F0A37470F0A37421F0A37440F07B0158
:1004D2007A0079729000867404F07F0B12138A7D81
:1004E200717F291215F99000727410F0A37402F052
:1004F2007B017A007972900086F07F0A12138A904B
:1005020000727402F0A37412F07B017A0079729087
:1005120000867402F07F0D12138A9000727401F04B
:10052200A37407F07B017A0079729000867402F05E
:0C0532007F0E12138A7D567F500215F9CF
:1008AF009000BD1202BC0001400078C17C007D01A8
:1008BF007BFF7A0079097E007F0212014E7D517F06
:1008CF00501215F97D537F501215F97D1E7F3D1281
:1008DF0015F99000BD74FF12027DEC4D4E4F70F272
:1008EF007D567F501215F9E4FD7F201215F97D53C7
:1008FF007F501215F97D8C7F361215F97D0F7F27EA
:10090F001215F97B017A0079C19000867402F07F8D
:10091F000412138A9000C17424F0A3742EF07B018B
:10092F007A0079C19000867402F07F1112138A7DCC
:10093F00517F501215F9E4FD7F211215F97D507F7B
:10094F00251215F9E4FD7F241215F97D0E7F201273
:10095F0015F97D967F261215F97DFF7FE31215F9A4
:10096F007D537F501215F97D8E7F361215F97D510B
:10097F007F501215F97D067F261215F97D967F2679
:0C098F001215F97D537F501215F980FEFF
:100FFA007D517F501215F97D537F501215F97D01ED
:10100A007F351215F99000CD7493F0E4A3F07B01BB
:10101A007A0079CD9000867402F07F1412138A7DCB
:10102A00307F3E1215F9E4FD7F311215F97D487FB4
:10103A003B1215F9E49000CDF0A3F0A37415F07BF0
:10104A00017A0079CD9000867403F07F1212138A18
:02105A0080FE16
:08070300900072EEF0A3EFF08C
:10070B00E4A3F0A37425F0900029E0FFA3E02FFFF2
:10071B00900078F0E4A3F0A3F0EF70030208AE12A0
:10072B001420900075E0FD7F211215F9900072E006
:10073B00FCA3E0FDEC900030F0EDA3F07B017A0020
:10074B00792B900086741EF07FA012138A9000768E
:10075B007402F0A37424F07B017A00797690008602
:10076B007402F07F0312138A90007674FFF0A37467
:10077B0080F07B017A0079769000867402F07F0E10
:10078B0012138A12165E7F307E757D007C0012116B
:10079B005D900027E4F0A3743CF0121655EF700344
:1007AB0002089B7F0E12161E900074EFF0FD7F2E39
:1007BB001215F9900074E030E03090002AE0D394E9
:1007CB00004007E014F07D0C800E900029E0D394DC
:1007DB000040C7E014F07D097F221215F97F807E5F
:1007EB003E7D007C0012110B80B0121477900074C8
:1007FB00E030E65F90007E7401F0A37400F0A37408
:10080B0079F07B017A00790012099B900008E06473
:10081B0002703EA3E064017038A3E0B40433D297B6
:10082B00E490007AF0900079E0FFA3E0FEC39F50C4
:10083B002274002EF582E43400F583E0FF74492E18
:10084B00F582E43400F583EFF090007AE004F08059
:10085B00D4C297900074E020E1030207A590002713
:10086B00E4F0A3743CF0900075E004F0D3942740BF
:10087B00037425F0900075E0FD7F211215F99000AF
:10088B0078E014F0E070030210B612165E0207A5B2
:10089B00900027E07002A3E060030207A512147713
:0308AB000207A59C
:0108AE002227
:061665000000000000007F
:10159300EF1FAC0670011E4C600C00000000000041
:0715A3000000000080EA22B5
:100E55007D807F1112131B7DB67F3612131B7F8891
:100E65007E13121593E4FD7F3612131B7D047F0F4D
:100E750012131B7D077F1012131B7DCB7F111213DD
:100E85001B7D8F7F1212131B7D127F1312131B7D87
:100E95000D7F1412131B7D147F1512131B7D0C7F00
:100EA5001612131B7D017F3212131B7D607F2712E3
:100EB500131B7D607F2812131B7D607F2912131B76
:070EC5007FE87E0302159394
:1013BD007D807F1112131B7F027E00121593E4FFB7
:1013CD0012105CEFC394B0400EEFD394B65008905A
:1013DD0000727401F08005E4900072F0900072E0EC
:0113ED00FF00
:0113EE0022DC
:10053E0078A37C007D017BFF7A1679657E007F06AD
:10054E0012014E7F0112105C9000A3EFF07F021299
:10055E00105C9000A4EFF07F0312105C9000A5EFEA
:10056E00F07F0412105C9000A6EFF07F0512105C75
:10057E009000A7EFF07F0612105C9000A8EFF0FD40
:10058E009000A4E075F004A4FF9000A3E0C4131340
:10059E005403FBEF4BFF9000A9E5F0F0A3EFF090B2
:1005AE0000A6E075F004A4FF9000A5E0C413135458
:1005BE0003FBEF4BFF9000ABE5F0F0A3EFF0ED7512
:1005CE00F004A4FF9000A7E0C413135403FDEF4DF5
:1005DE00FF9000ADE5F0F0A3EFF0E4FFEF25E0248F
:1005EE00A9F582E43400F583E0FCA3E0B40018EC36
:1005FE00B40214EF25E024A9F582E43400F58374E7
:10060E00FEF0A3E4F08076EC30E172EF25E024A951
:10061E00F582E43400F58374FFF5F012022BEF251A
:10062E00E024A9F582E43400F583E0FCA3E0F4FDB8
:10063E00ECF4FCEF25E024A9F582E43400F583EC1C
:10064E00F0A3EDF0EF25E024A9F582E43400F58364
:10065E00E05401F0EF25E024A9F582E43400F5839F
:10066E00E0FCA3E0FDC3E49DFDE49CFCEF25E0244B
:10067E00A9F582E43400F583ECF0A3EDF0EF25E06C
:10068E0024A9F582E43400F58374FF75F0A01202FC
:10069E002B0FEF640360030205EA9000A9E0FEA3AE
:1006AE00E0FF7C267D4F1201E37C007D401201F5B8
:1006BE009000AFEEF0A3EFF09000ABE0FEA3E0FFF2
:1006CE007C267D4F1201E37C007D401201F59000E7
:1006DE00B1EEF0A3EFF09000ADE0FEA3E0FF7C26BC
:1006EE007D4F1201E37C007D401201F59000B3EEC8
:0406FE00F0A3EFF086
:0107020022D4
:101561007F1312105C9000D0EFF07D807F13121377
:0B1571001B9000D0E0FD7F1302131B55
:1014BA007F0712105C900072EFF07F0812105C90A8
:0C14CA000073EFF0FE900072E0FDEDFFFB
:0114D60022F3
:10150F0090FF1374A3F090FF22743AF090FFA2742F
:0C151F0017F090FFA37424F075A6402282
:10131B0053A6F743A620E5A620E305E5A7B408F6F8
:10132B0053A6DF53A6F775AE24E5A7B418FB53A657
:10133B00F78FAEE5A7B428FB53A6F7AF058FAEE545
:0B134B00A7B428FB53A6F743A610220E
:10105C0053A6F743A620E5A620E305E5A7B408F6BA
:10106C0053A6DF53A6F775AE24E5A7B418FB53A619
:10107C00F78FAEE5A7B428FB53A6F743A620E5A649
:10108C0020E305E5A7B408F653A6DF53A6F775AE23
:10109C0025E5A7B440FB53A6F7E5A7B458FB85AEEE
:0910AC001653A6F743A610AF1677
:0110B5002218
:03000000020C45AA
:0C0C4500787FE4F6D8FD758116020C8C57
:10007E00E709F608DFFA8046E709F208DFFA803E64
:10008E0088828C83E709F0A3DFFA8032E309F60851
:10009E00DFFA8078E309F208DFFA807088828C83B9
:1000AE00E309F0A3DFFA806489828A83E0A3F6086D
:1000BE00DFFA805889828A83E0A3F208DFFA804C47
:1000CE0080D280FA80C680D4806980F2803380101E
:1000DE0080A680EA809A80A880DA80E280CA803387
:1000EE0089828A83ECFAE493A3C8C582C8CCC583FF
:1000FE00CCF0A3C8C582C8CCC583CCDFE9DEE780CF
:10010E000D89828A83E493A3F608DFF9ECFAA9F04D
:10011E00EDFB2289828A83ECFAE0A3C8C582C8CCA3
:10012E00C583CCF0A3C8C582C8CCC583CCDFEADEBC
:10013E00E880DB89828A83E493A3F208DFF980CC1E
:10014E0088F0EF60010E4E60C388F0ED2402B40417
:10015E000050B9F582EB2402B4040050AF232345BE
:06016E0082239000CE7315
:10017400BB010689828A83E0225002E722BBFE0289
:09018400E32289828A83E49322BC
:10018D00BB010989828A83F8E028F022500327F702
:10019D0022BBFE05F8E328F3228A838982F8E493D3
:0201AD00282206
:1001AF00BB010689828A83F0225002F722BBFE012F
:0201BF00F32229
:1001C100F8BB010DE58229F582E5833AF583E8F074
:1001D100225006E92582C8F622BBFE05E92582C820
:0201E100F22208
:1001E300EF8DF0A4A8F0CF8CF0A428CE8DF0A42E30
:0201F300FE22EA
:1001F500C2D5EC30E709B2D5E4C39DFDE49CFCEE25
:1002050030E715B2D5E4C39FFFE49EFE1202EDC3AD
:10021500E49DFDE49CFC80031202ED30D507C3E4A8
:060225009FFFE49EFE2293
:10022B00C5F0F8A3E028F0C5F0F8E582158270025E
:06023B001583E038F022FB
:10024100A3F8E0C5F025F0F0E58215827002158370
:06025100E0C838F0E822CD
:10025700EB9FF5F0EA9E42F0E99D42F0E89C45F0FD
:010267002274
:10026800E8600FECC313FCED13FDEE13FEEF13FF74
:03027800D8F12298
:10027B007401FF3395E0FEFDFCA3A3A3E0CF2FF0A9
:10028B00E582158270021583E0CE3EF0E582158281
:10029B0070021583E0CD3DF0E58215827002158367
:0502AB00E0CC3CF02254
:0C02B000ECF0A3EDF0A3EEF0A3EFF022C1
:1002BC00A8828583F0D083D0821202D31202D3128B
:1002CC0002D31202D3E473E493A3C583C5F0C583B0
:1002DC00C8C582C8F0A3C583C5F0C583C8C582C88C
:0102EC0022EF
:100C5100020DD9E493A3F8E493A34003F68001F2D3
:100C610008DFF48029E493A3F85407240CC8C333A4
:100C7100C4540F4420C8834004F456800146F6DF73
:100C8100E4800B01020408102040809011AFE47E43
:100C9100019360BCA3FF543F30E509541FFEE49368
:100CA100A360010ECF54C025E060A840B8E493A32F
:100CB100FAE493A3F8E493A3C8C582C8CAC583CA5A
:100CC100F0A3C8C582C8CAC583CADFE9DEE780BE12
:0111FD0000F1
:1002ED00BC000BBE0029EF8DF084FFADF022E4CCF5
:1002FD00F875F008EF2FFFEE33FEEC33FCEE9DECBE
:10030D00984005FCEE9DFE0FD5F0E9E4CEFD22ED03
:10031D00F8F5F0EE8420D21CFEADF075F008EF2F4D
:10032D00FFED33FD4007985006D5F0F222C398FD3E
:05033D000FD5F0EA22DB
:00000001FF
